:020000040001F9
:10B00000202F0020D5B00100EFB00100F1B0010009
:10B010000000000000000000000000000000000030
:10B02000000000000000000000000000F3B001007C
:10B030000000000000000000F5B00100F7B00100C2
:10B0400061B30100F9B001009DB40100F9B0010045
:10B05000F9B0010000000000A5B10100F9B0010045
:10B06000F9B00100F9B00100F9B00100F9B0010038
:10B07000F9B00100F9B00100F9B00100F9B0010028
:10B08000F9B00100B5B30100F9B00100F9B0010059
:10B09000D5B30100F9B00100DDB30100F9B0010042
:10B0A000F9B00100F9B0010000000000000000004C
:10B0B0000000000000000000000000000000000090
:10B0C0000348854600F05CF80048004725CD0100A4
:10B0D000202F00200321094802680A430260084823
:10B0E00002680A4302600748804707480047FEE7B6
:10B0F000FEE7FEE7FEE7FEE7FEE70000240500406E
:10B1000054050040FDB30100C1B0010030B50B464D
:10B11000014600202022012409E00D46D5409D4231
:10B1200005D31D469540491B2546954040191546B7
:10B13000521E002DF1DC30BD03460B439B0703D0AC
:10B1400009E008C9121F08C0042AFAD203E00B78EC
:10B150000370401C491C521EF9D27047D2B201E064
:10B160000270401C491EFBD270470022F6E710B562
:10B1700013460A4604461946FFF7F0FF204610BD65
:10B18000064C0125064E05E0E36807CC2B430C3C3A
:10B1900098471034B442F7D3FFF796FF08E3010055
:10B1A00028E30100F0B50024FF268BB0013601250D
:10B1B00027460694304602F095FA002807D05448F6
:10B1C0004068284203D0304602F084FA2C43361DF2
:10B1D0006D007F1CB6B2042FECD3FF257D352846C9
:10B1E00002F080FA002809D0284602F073FA6807B6
:10B1F000044306AA0121002002F058FA454D200719
:10B2000014D00127002627420CD04348B200111861
:10B2100008690969C004C00E8903AA58890F002A69
:10B2200000D090477F00761C042EECD3002C6DDA02
:10B2300000200890401E63E0281940300778B906C6
:10B24000890E009100214156491C49D009A9009856
:10B2500001F0EDFE002843D0B8090190009801F0FC
:10B26000A5FA80002F580198002F02D0032802D0A1
:10B270000DE0032834D1009808ABC208410794467A
:10B28000985C490F01228A40104362469854009806
:10B2900005210907800040180721090240180068AD
:10B2A00006A98003800F0290009801F0C0FE0028DC
:10B2B000029802D0022802D012E0032810D101988F
:10B2C000032808D1029802281ED00221009802F01B
:10B2D000CFF9761CF6B2002F02D001990098B8473A
:10B2E000641C042CA8D3002E10D06A460121002033
:10B2F00002F0DCF906990098884207D00690089879
:10B3000000263446099097E70321DFE70BB0F0BD34
:10B310000063004014260020006500408307FF22E0
:10B32000DB0E9A408907090E994000280BDA0007C6
:10B33000000F0838830808489B001818C369934316
:10B340000B43C3617047830804489B001B181868AF
:10B35000904308431860704700ED00E000E400E00F
:10B36000F8B5FF20013001F06AFE002401250E4EE1
:10B370000E4F002807D00E4804600120B0607D7099
:10B38000002001F01BFAFF20053001F058FE0028D4
:10B3900008D00748001D04600220B060BD70012085
:10B3A00001F00CFAF8BD0000000300400026002068
:10B3B0000001004010B50649002008604860886020
:10B3C000C860034940390860486002F0D7FC10BDEE
:10B3D0004011014010B502F043FC10BD10B5064805
:10B3E0004068002805D08047002801D000F01CFAF2
:10B3F00010BD01F065FB10BDA420002010B501F0C8
:10B40000ADFB002805D01F491D484860C8131E49E0
:10B4100088611E48018CC9B201290BD1828C1207A8
:10B4200008D1028D1206120F042A03D1828D120652
:10B43000120F0AD0012921D1818C09071ED1018D5B
:10B440000906090F0A2904D007E0114A0121916079
:10B45000F5E7828D1206120F05D00D290ED1808DD1
:10B460000006000F0AD10B480168012904D00A49DF
:10B47000016001680129FCD1C021416110BD0000BB
:10B48000DFFF07C000050040006C0040C00F00F067
:10B490000006004000EC06407593000010B502491C
:10B4A000024802F08BFD10BD5C2600200020004009
:10B4B00010B5024A024900F02FF810BD4BCA010036
:10B4C000A020002030B47446641E2578641CAB4272
:10B4D00000D21D46635D5B00E31830BC184702E0F4
:10B4E00008C8121F08C1002AFAD17047704700200F
:10B4F00001E001C1121F002AFBD17047202804DAA5
:10B50000012181400348014201D001207047002001
:10B5100070470000FC06FFBCF8B516460F4604460F
:10B52000002503E03946B047641C6D1C20780028D4
:10B53000F8D12846F8BDF7B584B00646002517882F
:10B54000158020300290407B1446002806D03A46F1
:10B550002146059800F074FD050009D1B078002857
:10B5600023D0059886462088001DB84202D90C20B9
:10B5700007B0F0BD684679DF0028F9D121880320A3
:10B580007246505420881921401C80B220801154EA
:10B5900020887146401C80B220804118684600888F
:10B5A00002F0A0FD218840182080F078002817D0F4
:10B5B000218803230A46F356C91C0598B942D6D8F8
:10B5C0000221815421880122491C89B221804254E0
:10B5D0002188491C89B2218043542088401C208046
:10B5E0007068002817D021880023C3560A46C91C5A
:10B5F0000598B942BBD80221815421880A22491CEE
:10B6000089B2218042542188491C89B22180435447
:10B610002088401C2080308900280AD000943046C1
:10B620000197062202210830059B02F0A9FD0500C2
:10B630009ED1308A00280AD0009430460197072214
:10B6400003211030059B02F09BFD050090D1308B4B
:10B6500000280AD000943046019715221421183092
:10B66000059B02F08DFD050082D1306A002806D0CE
:10B670003B462246059901F009F90500D8D1706AC8
:10B68000002806D03B462246059901F04DFC0500F6
:10B69000CED10298007B002807D03B462246304698
:10B6A000059902F0CDF90500C2D13078002807D005
:10B6B0003B4622463046059901F06AFC0500B7D1A9
:10B6C000284655E7174A0021535C002B01D0012280
:10B6D00003E0491C0629F7D300221349012806D0AC
:10B6E00002280BD0032810D0042818D112E0487883
:10B6F000002803D0002A01D0012070478878002854
:10B7000003D0002A01D002207047C878002801D059
:10B71000032070470879002801D0042070470020DA
:10B7200070470000252000201824002010B50122B9
:10B730000221002000F0BCFE002801D0072812D111
:10B7400007220221012000F0B3FE002801D00728C3
:10B7500009D100210A22084600F0AAFE002801D0E3
:10B76000072800D1002010BD10B5022000F056FDC2
:10B7700010BD000070B50024064D06E06968E000C9
:10B78000085C012101F0F0FC641C28788442F5D3A8
:10B79000002070BD50200020F8B515460C46064626
:10B7A000052A01D20720F8BD01F0B6FD002803D11B
:10B7B00001F084FD0028F6D1104900204E600C7085
:10B7C000C8608D6008610E4D0DE0E0006968801969
:10B7D000009181786A46517000780A4A694601F002
:10B7E0000FFD0028DFD12046641EE4B20028ECD112
:10B7F000054A0021024800F04DF8F8BD5020002015
:10B80000E0E2010071CA010085C90100BFF34F8F5A
:10B8100004490348C860BFF34F8F00BFFDE7000035
:10B820000400FA0500ED00E00EB500210290009141
:10B830006A4601910148FFF7E9FF0EBD0140000093
:10B8400010B58268C368934203D001F0EBF8002082
:10B8500010BD052010BD002906D0002A02D0531EBD
:10B86000134203D0092070470E2070470160838087
:10B8700000218160C1600846704710B58268C368C6
:10B880009A1A83889A4203D801F0D6F8002010BD96
:10B89000042010BD0A4B5B68002B07D0002A07D09C
:10B8A000002805D00068037C002B03D008207047D7
:10B8B00007207047002303744174426118467047A3
:10B8C00074200020FFB507469007002581B01E4672
:10B8D0001446002825D1002C23D001F0D3FF304698
:10B8E000114EF0603046103005704570029981703D
:10B8F00044607560357001240C487570240504603F
:10B9000003211420FFF70AFD09480460094CA760D1
:10B9100003211120FFF702FD6068B060002005B030
:10B92000F0BD0720FBE700006420002080E200E07B
:10B9300000E100E000150140FEB51F4B5B68002BE5
:10B9400030D000282ED0052901D20720FEBD436942
:10B95000002B27D0437C012B26D0002702910446E0
:10B960000025694616460D70684600F0D1F801A81A
:10B9700002F0F0FB002819D0012101700F4944604A
:10B9800049688160029907614661C16068460A4959
:10B99000007948706846007800F0D8F802F0A2F903
:10B9A0002846FEBD0820FEBD0F46D7E768460425A1
:10B9B000007800F0CBF8F3E7742000200015014078
:10B9C00010B50849496800290AD0002808D0416903
:10B9D000002905D000210174022102F0ABF910BD4D
:10B9E000082010BD7420002070B50B4D0146AE78C4
:10B9F0000A48FFF725FF0446002E0AD00020A87051
:10BA0000691C0122C81D01F0CFFC002801D0FFF7FE
:10BA10000BFF204670BD00008420002098260020E7
:10BA2000F0B5274E89B01F460D00044672601CD049
:10BA3000A888296882B22348FFF70DFF002815D196
:10BA4000A889A96882B21F481030FFF704FF0028B8
:10BA50000CD120221C496846FFF76EFB60690690F6
:10BA6000207C002804D0012103E0072009B0F0BDAC
:10BA70000021684601750777607C002800D00E2001
:10BA800069464875E0680290A068039020680190BC
:10BA9000606800900A480D4A083001F045FC002813
:10BAA000E4D1B0702068401CE0D00548083001F0B7
:10BAB000A9FC03490122491CC81D01F075FCD5E70A
:10BAC0008420002098260020E8E2010015DF010014
:10BAD00010B501460C48FFF7D0FE040012D10B4808
:10BAE00001F05AFD00280DD1084907480839FFF731
:10BAF000A7FE002806D1054901220839034801F0B4
:10BB0000EBFC0446204610BDA82600208C20002017
:10BB100030B5EFF3108172B6094A54680123002C46
:10BB200004D00370002900D162B630BD5360054BCC
:10BB30001D68054C254015601C6000220270F1E76D
:10BB40009820002080E100E0FC06FFBC08494A681C
:10BB5000002A0CD000280AD1EFF3108072B60A68D0
:10BB6000044B1A6000224A60002800D162B6704778
:10BB70009820002000E100E0F8B5074608680C4670
:10BB80000526411C01253602002906D029468140A0
:10BB900019488160206801F050FD6068411C02D0A6
:10BBA000002101F041FD3968A06989194862607D72
:10BBB000217D3A6808439119C866386806CC801917
:10BBC0004261C160207B083C012814D1A068411C5F
:10BBD00002D0002101F028FDE068411C05D085401D
:10BBE00005488560E06801F028FD3A68E16892192F
:10BBF000A06891601061F8BD00050050F0B50C46DA
:10BC000093B01F216A4611800726002791800028E3
:10BC100009D0C17849070DD502A9FFF78CFC00288F
:10BC200009D102AD01E000251780002C0ED0E0788C
:10BC3000002802D0304613B0F0BD01AA0AA9204660
:10BC4000FFF779FC0028F6D10AAA02E06846002234
:10BC5000878068468088C3B268460088C1B228469B
:10BC600072DFE8E7FFB581B01E460A9F1346040065
:10BC700047D0002B45D0504D012028700020E8709F
:10BC8000202219464D48FFF757FA00206F61C04344
:10BC90002E612881284607211830FFF766FA4748A9
:10BCA0003C212030FFF761FA4448217820300170B0
:10BCB000A1788170E178C170617841703F4A65690F
:10BCC00023695563114613632031E368A268CB6092
:10BCD0008A603A49E369A269CB638A63616A002991
:10BCE0001AD001463C310246483241628A60636A9A
:10BCF0001B880B80616A436A898899800021436AA6
:10BD000007E00E2005B0F0BD656AAD686D5C555466
:10BD1000491C9D888D42F7D8A16A00291CD0274A6A
:10BD2000943211460C398A608162A36A9B888B80A9
:10BD3000A16A836A098819800021836A04E0A56AE0
:10BD4000AD686D5C5554491C9D888D42F7D82C21F7
:10BD50000A5D1A4940310A73216A002909D016493F
:10BD60000A310162226A52884A80216A026A09887D
:10BD700011806168002900D04160104A0E490020FE
:10BD8000B3322031C3001B1A85009B180C68401C7D
:10BD900063510828F6DB094A0020EB3203018500D5
:10BDA0009B188C68401C63510828F7DB03480299F4
:10BDB0002030FFF723FFA5E70C20002018240020E7
:10BDC00010B50188134C102915D0112919D01B2941
:10BDD00010D1007A00280DD1E0780521401CFFF732
:10BDE00095F9084600F036F8002803D0616900296B
:10BDF00000D0884710BD817D0129FBD1808820813A
:10BE000010BD00216171808821898842F8D101200C
:10BE1000E8E700000C20002010B574DF0B4C012077
:10BE200060710B490620C87000210948FFF7E6FE43
:10BE3000002809D1E07800F00DF8002803D06169EE
:10BE4000002900D08847002010BD00000C200020F1
:10BE500038240020F1B53F4C88B0207800280AD063
:10BE60000898E07006A800F0F7FD06980125002864
:10BE700004D065706AE0082009B0F0BD354800279D
:10BE800007211830FFF771F9334E7078002802D07F
:10BE9000E078012807D0B07800280CD0E07801289D
:10BEA00001D0022807D12169002903D0257108207B
:10BEB000884700E027710898FFF704FCE0702169CB
:10BEC000002909D0032801D0042805D130780028A2
:10BED00002D06079002811D0A77118216846FFF7B9
:10BEE00044F9684607700772E1781A480B00183069
:10BEF000FFF7E8FA052E080F191D2000A57107208D
:10BF00008847EAE7A5700190684605704782078276
:10BF100013E00221A170019068460570B189418249
:10BF20003189018209E0684601F0D2FD02E06846ED
:10BF300001F0FAFDE078002803D0684673DF00289E
:10BF40009AD12169002901D0A0788847002093E781
:10BF5000A770F6E70C2000201824002070B50546D5
:10BF600001461C220E48FFF7E7F80E4C002626700B
:10BF70002968002906D00822201DFFF7DDF8201DC2
:10BF80007ADF02E00748001D7BDF002807D1401E52
:10BF900060806670044A00210448FFF77BFC70BD96
:10BFA000E42500203C200020F1E00100C8E201006F
:10BFB000F8B5214C0146028800261E48E589102A62
:10BFC00013D01E4F112A1FD0122A2BD0502A1AD15B
:10BFD000881DC988A94216D14189022913D10C3084
:10BFE00000F0FEF800280CD112E08A880446428056
:10BFF000104808220C301831FFF79EF86670002DAB
:10C0000001D100F08BFCF8BD0021C943418046708E
:10C010003868FFF7D5FC0028F5D0A1690029F2D0D7
:10C020008847F8BD034808220C300831FFF784F830
:10C03000E7E700003C200020E4250020C8E20100E2
:10C040007CB5054608880C460930904201D90C2081
:10C050007CBD684671DF0028FAD121880820685429
:10C0600020881B21401C80B220802954208800A9F0
:10C07000401C80B22080401906220131FFF75CF895
:10C0800020886946801D80B220800978002900D070
:10C09000012129542088401C208000207CBD000004
:10C0A00010B50446FFF784FF2146064800F040F82B
:10C0B000204601F057FB2046FFF782FE204600F0A5
:10C0C00039F910BD9023002030B5184B0D460400FF
:10C0D0000FCB85B003936B4607C324D0002D22D02D
:10C0E0000020C043A0822868A0610020A0752146DE
:10C0F000684663DF002814D12178684681740121E5
:10C100000182A21C04A90120A0DF002809D1294630
:10C11000204601F0ECFB002803D12946204601F01F
:10C120007CFE05B030BD0E20FBE70000CCE2010034
:10C1300010B500281BD0002919D00A88102A17D062
:10C14000112A17D0502A12D104468A1DC888238A82
:10C150001231984202D15389022B0FD0A388984202
:10C1600005D1A369002B02D052892046984710BD03
:10C17000898801E00021C943818210BD084600F092
:10C180002FF8002800D00120A07510BD07B584B09D
:10C1900000280DD0828A114B9A420BD0827D002A52
:10C1A00008D06A46128B142A06D9072007B000BDB2
:10C1B0000E20FBE70820F9E700220092019202928C
:10C1C000039282896B461A80039106A9029101218C
:10C1D0009970808A6946A6DFE8E70000FFFF00004B
:10C1E0004178027808021043C007C00F7047000072
:10C1F0000149085C7047000098E201000549095CAC
:10C2000005480069C840C007C00F00D001200121C7
:10C210004840704798E201000005005005490B5C5A
:10C2200005494A6801209840034693438B601040BB
:10C23000C860704794E201000005005010B5034942
:10C24000085C012101F026FA10BD000094E2010013
:10C2500010B50349085C002101F01CFA10BD000074
:10C2600094E201000549095C05484068C840C007E0
:10C27000C00F00D0012001214840704794E2010026
:10C28000000500507CB50024074E2546305D012294
:10C29000009500231146019501F08AF9641C042CD5
:10C2A000F4D300F003F87CBD94E2010010B5002443
:10C2B0002046FFF7C3FF641C042CF9D310BD10B552
:10C2C00000242046FFF7C4FF641C042CF9D310BDE2
:10C2D0000246002010B5C043054B00215C5C94422F
:10C2E00001D1084610BD491C0429F7D310BD000038
:10C2F00098E2010070B50E4E00250C463060002912
:10C300000DD0012000F0AEF8002801D0022005E099
:10C31000002000F0A7F8002800D00B2020707068E3
:10C32000002802D1FFF702FA0546284670BD00003A
:10C330000420002010B51C4C0188606810290DD025
:10C3400011290AD1401E606007D1FFF7EFF90028DC
:10C3500003D02168002900D0884710BD00281ED1D5
:10C3600000210122084600F0A3F8002801D0072888
:10C3700011D107220221012000F09AF8002801D0F3
:10C38000072808D104220221002000F091F800289B
:10C3900005D0072803D02168002900D088476068AD
:10C3A000401C606010BD00000420002010B500207B
:10C3B00000F0BCF9002801D0062807D1012000F0C8
:10C3C000B5F9002801D0062800D1002010BD0000DA
:10C3D000F3B581B00D460198FFF77AFF04460428B3
:10C3E00013D21D481D4F1E4E002D27D0012D0DD0FC
:10C3F000022D0AD160002018C0194578002D04D004
:10C40000F168002901D028468847FEBD6100611807
:10C410007D5CCF19797800290BD071680A225143CD
:10C420000F4A8068921CFFF787FA002801D1019813
:10C43000B0700B48B97810300155DFE78068FFF71E
:10C44000BFFA0748610061181030C919005D8D7886
:10C45000A842D3D0FEBD00009CE20100EC230020E6
:10C46000F01F002010B5FFF7C9FE10BD014610B542
:10C470000D480429408806D007290CD00A2901D18B
:10C4800001F07CFB10BD132176DF09E00028F9D014
:10C49000FFF7CAF910BD05498842FBD1FFF7BCFC84
:10C4A0000828F3D110BD0000E81F0020FFFF0000A6
:10C4B00070B50023042811D2440004190D4D012A3F
:10C4C00002D101290DD0002246008019094E8019A1
:10C4D00000290CD0012906D0022906D007231846CE
:10C4E00070BD0E30C2B22A55F9E74270F7E782708C
:10C4F000F5E70000EC23002010B5054A0146127A4A
:10C500000020D20702D0084600F050F810BD00000D
:10C51000F01F0020F8B506461F4800248660C26060
:10C5200041600F46B00720D500250122114628465C
:10C53000FFF7BEFF6D1C0446042D02D2002CF4D080
:10C5400013E0002C11D17A0804211448FFF724F9D4
:10C5500004000AD1FFF70EF9040006D10F48104A73
:10C560000021001FFFF796F90446F00701D0FFF7FE
:10C5700089FE002C0ED109480A4A00210C38FFF729
:10C5800089F9040006D10548074A01210838FFF758
:10C5900081F904462046F8BDF01F0020A8E2010002
:10C5A0003DC70100A5CB010069B70100F8B55D4C9E
:10C5B000054660780026002803D000206070FFF751
:10C5C00075FE0120584F2B00FEF77CFF18970D0DCC
:10C5D0002E3D4A5F64686F686FA9777777777797A2
:10C5E0009A9DA0A9A9950020FFF73CFE00280AD03B
:10C5F0000020FFF723FE022D02D1E120C0000BE056
:10C600007D20400108E00020FFF722FE022D01D12D
:10C61000C82001E0FF20913025706421FEF776FDEF
:10C620006168414300222BE00020FFF71BFE002839
:10C6300005D00020FFF702FE19204001ECE70020A2
:10C64000FFF706FEE4E70020FFF70CFE002803D00A
:10C650000020FFF7F3FDD3E70020FFF7F9FDD9E74E
:10C660000020FFF7FFFD002803D00020FFF7E6FDC4
:10C6700002E00020FFF7ECFD257060684100002219
:10C680003868FFF759F9064635E00020FFF7C6FD88
:10C69000257007E000203FE025702CE0607001204D
:10C6A000FFF7BCFD00226168EAE760700120FFF738
:10C6B000B5FD606881004118E1E77868FFF780F90F
:10C6C00006461120401B01D0002E03D00220FFF7A8
:10C6D000B5FD10E001280BD9C82148436421FEF7BD
:10C6E00015FD6168002241437868FFF725F9064689
:10C6F0000220FFF7ADFD3046F8BDFFF7D7FDCBE7D1
:10C70000FFF7D4FDC6E7FFF7D1FD04E0FFF7CEFD4C
:10C710000020FFF79DFD0120FFF79AFDBCE7FFF722
:10C72000CEFDB9E7F01F00209CE2010010B5FFF735
:10C730005FFD032100F08BFF002010BD10B50078D5
:10C740000221FFF745FE10BD0022D24383000449B9
:10C750000428CA5002D3081820300277704700001E
:10C7600014260020F0B50025ED43002A02D0002356
:10C77000042601E0042308260B4C04E09F00E7593F
:10C780007F1C04D05B1CB342F8D32846F0BD2618AA
:10C790005DB2203635709E00A151002AF5D1E11816
:10C7A00020310877F1E7000014260020024909181B
:10C7B00020200856704700001426002070B5084C51
:10C7C000050009D010342168002907D008682060CE
:10C7D000496828468847F6E70834F4E770BD00004A
:10C7E00000260020F8B52348416800293ED00E6895
:10C7F00021494C6887688078E11B0D022D0AED1CE9
:10C80000002814D101201D4A000450601B4A403A00
:10C8100050601B49400008601A4908601A4901200D
:10C8200008602F2000F014FC124901208870B542E6
:10C8300000D23546E81900020F4B000A4033186059
:10C840000D4A5168001B091B0902090A0002000A6F
:10C85000C91C814209D9506818602F2000F0F8FBEC
:10C8600001200749400480390860F8BD01F00AF84A
:10C87000F8BD000064200020001501404013014075
:10C8800080E200E000E100E000100140F8B506465B
:10C89000108814468446801D0D46984201D90C200C
:10C8A000F8BD32880720062AFAD31927FF01184B52
:10C8B000BA4201D99A42F3D171880629F0D3B9421C
:10C8C00001D99942ECD19A4203D0994201D08A42CF
:10C8D000E6D805216046295420881221401C80B2E8
:10C8E000208029542088401C80B220804119308843
:10C8F00001F0F8FB2188401880B22080411970882F
:10C9000001F0F0FB2188401820800020F8BD0000D5
:10C91000FFFF000010B5FEF787FF10BDF8B5164801
:10C9200000F00EF9144D00260C3D144C002807D0E1
:10C93000616900291CD001206A461070684616E023
:10C940002878002805D06169002911D06846067052
:10C950000DE0687800280DD0A16809480022006821
:10C96000FEF7EAFF002803D0A169002900D088471C
:10C970002E70F8BD6168F0E748200020E425002013
:10C98000C8E20100F8B500260124154D23E06968CE
:10C99000F0004718387821462A698140114218D0A2
:10C9A0008A432A6100F080FC3A782146EB68914086
:10C9B00019400346934099420BD17978012901D05F
:10C9C000012100E000217B684140002B01D010468E
:10C9D0009847761CF6B228788642D8D3F8BD000076
:10C9E0005020002010B50E4900230A784C78A2424E
:10C9F00012D0521CD2B20A70022A00D10B700A78EF
:10CA0000074B920018339A58026088681018000289
:10CA1000000A8860012010BD0360002010BD0000E6
:10CA200064200020826883881A4003689A5C0A7038
:10CA30008168491C81607047C26883881A40036816
:10CA40009954C168491CC160704710B50446C0B212
:10CA5000FFF73EF8204610BD002804D00349496E78
:10CA6000016000207047032070470000B8260020B6
:10CA7000F8B50746104E0125BD403068FEF7A0FF0F
:10CA800000280DD10D4C2069284207D1384600F00E
:10CA90000BFC0028E06804D0284303E0A843206191
:10CAA000F8BDA843E0602069002228432061A16806
:10CAB0003068FEF741FFF8BDE0E2010050200020A1
:10CAC000F8B51E4C2078002836D0E06800260028F3
:10CAD0000CD00025607800282ED1684652DF05284A
:10CAE00006D0002806D0FEF79FFE0BE00125F1E7F7
:10CAF000012607E0009800F001FB2169002901D020
:10CB000000988847002D13D16078002814D16088E0
:10CB100069460880A06861DF052804D0002804D099
:10CB2000FEF782FE04E0012502E0E168A068884784
:10CB3000002ECFD0002DE5D0F8BD0000A4200020AD
:10CB4000418805480288914204D34088814201D837
:10CB50000120704700207047402000201048018CC1
:10CB6000C9B2012917D1818C090714D1018D090699
:10CB70000A0F03D1828D1206120F0ED0090F012960
:10CB800003D1828D1206120F07D0032903D1808DA5
:10CB90000006000F01D00020704701207047000000
:10CBA000C00F00F010B50448017AC90702D0007820
:10CBB000FFF7FCFC10BD0000F01F0020F0B5284C72
:10CBC0002146103948688B68227886469C46CF7883
:10CBD000667836E0182353436168521CC918A3785D
:10CBE000D2B2934200D100220B78022B02D0032B49
:10CBF00027D123E003464D68194603E0A94204D03B
:10CC00000B46C96900291CD0F8E7002919D08B42CE
:10CC100008D1C069002805D1124F0125BD6000254B
:10CC2000AC4601270D68C969D961002909D00B6894
:10CC30005B190B6005E00174C06900E00021002869
:10CC4000F9D19642C6D10649624610398A604860D9
:10CC5000CF70704501D00120F0BD0020F0BD000074
:10CC60007420002000100140F8B52C4E0446706876
:10CC70000025009041E0002C02D02046E46920E02D
:10CC8000264818231030017842684B43491CC9B22A
:10CC9000D21801708378994200D1057011785068DC
:10CCA00001292CD1017C002929D191684160D168EA
:10CCB00081601169C16051698161F178002900D0FA
:10CCC00045604368B268164F991A0902090AB942C9
:10CCD00002D28268891806E0D11A09028268090A1C
:10CCE0008A4202D9511A016000E0056045600121C5
:10CCF00085600174C56100F0FDFF002CBBD10748C1
:10CD00001030017840788142BAD171680098814230
:10CD100001D00120F8BD0020F8BD000064200020F3
:10CD2000FFFF7F000023A8B06C4A05211846FEF7DC
:10CD3000C9FD002801D0FEF777FD18226849684632
:10CD4000FEF7FAF9FF210131664806904018079175
:10CD5000099108900323644A06A96846FEF760FE1D
:10CD6000002801D0FEF760FD604A61490320FFF70B
:10CD7000D1FB002801D0FEF757FD69460020FFF7E0
:10CD8000B9FA002801D0FEF74FFD68460078022866
:10CD90007ED000206946087151485249001F006842
:10CDA0000590002348225C3905A800F027FF0028E1
:10CDB00001D0FEF739FD6A460121002000F006FF90
:10CDC000002801D0FEF730FD684600F0F5FE00288F
:10CDD00001D0FEF729FD474800F0E4FE002801D00D
:10CDE000FEF722FD1120694608720B2242A102A81B
:10CDF0007CDF002801D0FEF717FD002400941021ED
:10CE00006846019401803C214180FF21848091315A
:10CE1000C1807ADF002801D0FEF706FD3948009076
:10CE20002E4869467830FFF74FF9002801D0FEF709
:10CE3000FBFC3C2101A8FEF798F90221684601712C
:10CE400084710521C1713C2110A8FEF78EF90125DE
:10CE500010A805822C48159020211FA8FEF785F9FF
:10CE600018A8C57740202390B4202490274B1FAAF0
:10CE700010A9009401A8FEF7F5FE002801D0FEF7E6
:10CE8000D3FC1C216846FEF770F90520C00300E0C2
:10CE90001BE001900F2000040290009403216846DB
:10CEA0000173C48104741A4805901A4806906846B4
:10CEB000FFF754F8002801D0FEF7B6FC16A0FEF7E5
:10CEC000F7FA0320FEF7C6FF02E0012062E748DF21
:10CED0000028FCD0FEF7A8FCF9E70000182300208A
:10CEE0007CE2010018210020B5DE01006DC40100C4
:10CEF000CD0C0000A1C001004E6F726469635F55E4
:10CF00004152540013D70100EC1F002043D7010009
:10CF100035D8010015C901000D0A5541525420535E
:10CF200074617274210D0A0070B5144682880E4631
:10CF300005462088111D4118921C994201D8FE2AED
:10CF400001D90C2070BD521C32542088FF21401C96
:10CF500080B2208031542088401C80B2208081190A
:10CF6000288801F0BFF82188401880B22080AA8864
:10CF7000002A09D0A968002908D08019FEF7DCF83A
:10CF80002088A98840182080002070BD072070BD2F
:10CF9000F8B50F46017814460546012902D1687894
:10CFA000002806D02088821C9A422DD8012902D060
:10CFB00006E00720F8BD69784118891C994223D8FA
:10CFC000181A801E86B2684606802188B81C081888
:10CFD00069467DDF0028EDD12878022805D1694611
:10CFE0000988B14201D809210AE00821012805D1A8
:10CFF0006878B04202D86A46108001E06846068030
:10D0000068460088FE2801D90C20F8BD2288401C03
:10D01000B8542088401C80B220803954208869464A
:10D02000401C20800988401820800020F8BDC208DC
:10D0300043075B0F0120895C98400840704701213D
:10D04000890740180068002800D0012070470000C0
:10D0500000280FD00849094A096800BF00BF00BF77
:10D0600000BF00BF00BF00BF00BF914200D000BFA3
:10D07000401EF2D170470000B82000200024F400C8
:10D0800070B50E4C00252078002801D0852513E0CE
:10D090000021A16061602161E1600948006801260A
:10D0A000304002D1032100F02FF800F0D3FD00281A
:10D0B00001D1044886612670284670BD00260020F4
:10D0C00000E100E00005004038B500206946087026
:10D0D0006846FEF71DFD084C2078002801D1FFF7B7
:10D0E000CFFFE068401CE0600120A0706846007837
:10D0F000FEF72CFD38BD00000026002010B50028EA
:10D1000001D1FFF75BFB10BD8207D30EFF229A40CF
:10D110008907090E10B5994000280BDA03071B0F89
:10D12000083B9C080C4BA400E318DC6994430C43B7
:10D13000DC6107E08408094BA400E41823689343EA
:10D140000B432360C106C90E0120884004490860D2
:10D150000449086010BD000000ED00E000E400E0BC
:10D1600080E200E000E100E0F3B581B0054600F0A8
:10D1700071FB1F4F0028284617D0FFF717FBC01977
:10D180002030007F8009032802D001280BD005E061
:10D1900018480069E840C007C00F04D003212846A2
:10D1A00000F066FAFEBD0221F9E700F05FFB0028FF
:10D1B000F8D02846FFF7FAFA04468000C11D0E4A4F
:10D1C000F9318018026989B20126324302610846AA
:10D1D00000F080FA02980028E4D02846FFF7E6FA2B
:10D1E000800038580028DDD00448A6404660FEBDC7
:10D1F0001426002000050050006500400063004038
:10D20000FEB5044625480E46001920214156002748
:10D21000C8171346401C01D008273CE0F278194695
:10D220002046FFF79FFA0546401C33D0B07800280F
:10D230000BD005200007A1000918072000020918DB
:10D24000086802229043086007E0002173782046B6
:10D2500000910A46019100F0BFF9F078002810D043
:10D260000F48AA001018317802690E4B1A4002616B
:10D27000E206D20C8907890B0A4301690A4302615D
:10D2800009E00648327840192030017F92011143AD
:10D29000017700E004273846FEBD00001426002078
:10D2A00000650040FFE0FCFF03490969C140C80771
:10D2B000C00F00D0012070470005005070B5144D1C
:10D2C0002879002801D0082070BD1149002040397C
:10D2D000421E0B182033401CC0B21A702028F8D30D
:10D2E00000242046FFF730FA641CE4B2082CF8D37F
:10D2F00003210620FFF708FFFF207D3000F0EAF948
:10D3000001200449C007486001202871002070BD39
:10D31000542600200063004002480079002800D015
:10D320000120704754260020F8B506460F460079C4
:10D330001C2148431A4915464418E07E002801D0B4
:10D340000820F8BD39463046FEF716FC656038699E
:10D35000206028460025002813D0FF223068397F3E
:10D360001D328550FF2230684532855003233068D6
:10D370001B020C4AC01842603068000B40B2FFF735
:10D38000C3FE052230680421120280180160E57591
:10D390002576A5750121E1762846A576F8BD000021
:10D3A0005C26002080000200F8B503791C2463434A
:10D3B000134C81251C19032766680023AD003F022A
:10D3C000002E02D00668F619B560E67D002E0ED05C
:10D3D000237E002B07D06168002902D00068C019A5
:10D3E00045601120F8BD21610123227604E0E27539
:10D3F0000025E1606576257600F01AF8F8BD00009A
:10D400005C26002070B5044600791C21074D484376
:10D410004019807E002808D1204600F0C1FA20790A
:10D420001C22012150434019817670BD5C260020EA
:10D43000F8B5044600791C21484326494518A87EC2
:10D44000184302D1204600F0ABFA6868002808D0E3
:10D450008121032220688900120280184160002087
:10D46000F8BDFF204530216800220A50FF212531F8
:10D47000206800F041F90646FF210931206800F0DC
:10D480003BF90090FF214531206800F035F907464F
:10D49000009838433043E9D03046384307D1294615
:10D4A000206800F011FAE87D697E8842DED800200D
:10D4B000E875002E01D00320F8BD002F01D00F2009
:10D4C000F8BDA97E01200029216801D00860C6E7C7
:10D4D0004860C4E75C26002070B505460C4600791C
:10D4E0001C21484308494318284600F055F80028F5
:10D4F00001D0112070BD9A7500209C60988228464A
:10D5000000F004F870BD00005C260020F8B5044669
:10D5100000791C2148431F4900264518FF27206831
:10D520001D37C6512068012181602946206800F01E
:10D5300065FC6968002913D027E0FF270137FF2128
:10D540001D31206800F0D8F8002802D1A88AB8421E
:10D55000F5D1A88AB84203D02946206800F04EFCD5
:10D56000A88AA97D8842E8D3A98AC81FF9380ED0B5
:10D57000FF271D373946206800F0BEF80028F9D093
:10D5800020680121C1600020A8753046F8BD0F2633
:10D59000F9E700005C26002000791C21484303497C
:10D5A0004018807D002800D0012070475C260020B4
:10D5B00070B552000A439900049D0A432902059E52
:10D5C0000A43310405240A43240780000721001977
:10D5D00009024018026070BD70B552000A439900FC
:10D5E000049D0A432902059E0A43310405240A4387
:10D5F000240780000721001909024018026070BD4D
:10D6000070B552000A439900049D0A432902059E01
:10D610000A43310405240A43240780000721001926
:10D6200009024018026070BD1CB500220B46009232
:10D6300011460192FFF7E4FF1CBD1CB500210091CB
:10D640000B46012201911146FFF7DAFF1CBD0522AE
:10D6500012078000821807200002101802680323B6
:10D660001B049A430260026809040A43026070477F
:10D670000522120780008218072000021018026895
:10D6800003231B049A430260026809040A430260F0
:10D6900070470000012282400348002901D08260C7
:10D6A0007047C260704700000005005038B5084B55
:10D6B00005241B68009324026B46411805E0850091
:10D6C0005D592D192D69401C20C28142F7D838BD03
:10D6D000DCE20100024940180021016070470000AF
:10D6E00000600040034940180068012800D0002075
:10D6F00070470000006000404058002800D0012022
:10D7000070470322120280184068084000D00120B0
:10D71000704770B516460D46002405E0285DFEF7FB
:10D72000D7F90028FAD1641CB442F7D30D20FEF7D4
:10D73000CFF90028FAD10A20FEF7CAF90028FAD159
:10D7400070BD10B5002809D0032806D10220FEF7CD
:10D75000D3FE002801D0FEF767F810BD00F00EFAE6
:10D7600010BD000070B50446314D00886E8888B049
:10D770003A2838D00DDC022839D0102813D01128CF
:10D780001AD0132822D100231A46852130467FDF84
:10D7900026E051282FD052281DD0552816D1A08818
:10D7A000132176DF1CE00720FEF7A6FE002801D03B
:10D7B000FEF73AF8A08808E00020FEF79DFE00285A
:10D7C00001D0FEF731F80020C043688008B070BD7A
:10D7D000FEF72AF8FAE700231A4619463046A9DF71
:10D7E0000028F5D1F2E7A088132176DFF8E7A088BA
:10D7F000002167DFF4E71022A11D04A8FDF79CFCBF
:10D800006846017C0029E1D0007E042803D0062868
:10D8100001D00528DAD1022908D001206946087014
:10D82000FF2083308880A088A8DFD9E70220F5E7B1
:10D83000E81F002010B50078002807D104483B21DC
:10D84000408876DF002801D0FDF7EEFF10BD000014
:10D85000E81F00200449081820214156042901DB53
:10D860000120704700207047142600200449081842
:10D8700020214156042901D2012070470020704721
:10D880001426002070B501240B49600408600B4980
:10D8900040108860094940398860094D6C602F202C
:10D8A000FFF7D6FBAC60074D00242F20AC60FFF7DC
:10D8B000CFFBAC7070BD000080E100E04013014080
:10D8C000001001406420002030B5FF220523CD7DEB
:10D8D000002409321B02C318002D8450986905D01A
:10D8E0004B7ECA68D054487E401C487630BD70B527
:10D8F00000240546601C90B00007000F08A91030F6
:10D9000008940870601C0007000F10304870887879
:10D91000F9263040801C88701C2101A8FDF725FCE9
:10D92000694608791021084369460871029408A8DD
:10D930000494059407940690287808A98871032018
:10D940006946888411200094087048708878F7210F
:10D950003040801C0840EF210840012630436946D2
:10D96000887014210AA8FDF700FC09A80A906846EF
:10D970000B9069460E8614204C8688862B46688854
:10D980000C330AAA01A9A2DF10B070BD1FB5012493
:10D990006B461C701972019206C8684690471FBDFD
:10D9A000FF23253302680021D150FF230268093389
:10D9B000D1500068012101607047000010B5044695
:10D9C000FDF79CFD00280CD0A007C00E002C0ADA41
:10D9D0002107090F08398908144A89008918C9697B
:10D9E00006E0134810BDA108124A89008918096889
:10D9F000C1400806800F042811D200280FD0022849
:10DA00000DD00D494B68E206D20E01209040002B4C
:10DA100008D0620992008B5803438B5004E00448FD
:10DA2000401C10BD05490860002010BD00ED00E05D
:10DA30000120000000E400E09820002000E100E068
:10DA4000FFB50746806A81B0144600283DD0002506
:10DA500038462030009033E00C20B96A68430E1835
:10DA6000B088801CFE2802D90C2005B0F0BD2288A9
:10DA70000299401C885420881622401C80B22080C5
:10DA800002990A542088401C80B2208002994118D3
:10DA9000308800F027FB2188401880B22080B288AF
:10DAA000002A0AD0B16800290FD0029BC018FDF7E8
:10DAB00043FB2088B188401820806D1C0098EDB28F
:10DAC000007BA842C8D80020CFE70720CDE70000A0
:10DAD00070B504461248134D018A2182818A618201
:10DAE0000078002818D06879002815D100F0B8FB1C
:10DAF000002811D028462030E0600220084920721A
:10DB000004202031C870064800212030FEF776F846
:10DB1000002804D1052000E00320A870002070BD7B
:10DB2000182400200C20002070B50446114804265B
:10DB3000018B2182818B618200780F4D002816D0E5
:10DB40006879002813D100F08BFB00280FD02846FD
:10DB50002030E06002202072064800212030C6708C
:10DB6000FEF74CF8002804D10620A87000E0AE7043
:10DB7000002070BD182400200C20002010B50020CB
:10DB8000FEF7BAFC002801D0FDF74EFEFEF70EFCB2
:10DB9000002801D0FDF748FE3CDF002801D0FDF74A
:10DBA00043FE10BD002803D00249C8600020704722
:10DBB0000E207047A42000201CB50349019100915C
:10DBC000694660DF1CBD0000E81F002070B50E46EE
:10DBD0000546144614211046FDF7C7FA012000211E
:10DBE00020802161217326726572002D00D0A07201
:10DBF000002070BD10B5FDF709FE10BDF8B5002975
:10DC000003D08C070025002C01D00720F8BD0E4E54
:10DC10000E4FB1607280736039680124214003D0D7
:10DC20000A49254680310C60094910DF002803D0DD
:10DC3000002DEBD03C60F8BD3470FFF745FA16209C
:10DC4000FFF7BCFEF8BD0000A420002000E100E0CA
:10DC5000F5DB01000148007870470000A420002097
:10DC6000FEB51F4C0025A768606802906846FEF765
:10DC7000B9FE0190FEF7A2FF06460198002822D0C7
:10DC800000230098616817E00E680A46864202D9B0
:10DC9000301A086012E0801BF31800261660D66860
:10DCA000D169B446002E07D0FE183602360A5660F7
:10DCB00066469660D56115460029E5D12846616023
:10DCC000FEF7D2FF06E02846FEF7CEFF002801D17E
:10DCD000002E02D00298FEF785FD0020E070FEBD08
:10DCE0006420002001200249000508607047000000
:10DCF00000E200E010B50E4B5968002906D002681A
:10DD00000C68A24204D8A21A0A60C161586010BD12
:10DD10000B4604E00B46C969121B002904D00C68AD
:10DD20009442F7D3A41A0C600260C161D86110BD9F
:10DD3000642000207CB50D460646002469460C7020
:10DD40006846FDF7E5FE01A800F004FA00280DD0B2
:10DD50000570466068460849007948706846007852
:10DD6000FDF7F4FEFFF7BEFF20467CBD68460424A5
:10DD70000078FDF7EBFEF7E774200020F8B51D4DA5
:10DD80006C68002C34D01C4800274068A968401AF1
:10DD90000602360A2068B04218D8361AC719224639
:10DDA000107CE46900280FD000201074EB68002B71
:10DDB00007D0916950699847002805D0FDF734FDD8
:10DDC00002E0516990698847002CE3D1297868788E
:10DDD000814206D1401CC0B26870022801D10020E7
:10DDE000687004490006800D18310F50FFF77AFF64
:10DDF000F8BD00006420002000150140FF221D3204
:10DE0000002383508B8A8A68D25C8B8A5B1C8B824E
:10DE1000052109024018C261704770B58EB00546F1
:10DE20001C216846FDF7A1F9694608780C210843D2
:10DE300069460870002401940394049405940694A0
:10DE4000287808A98870022069460884601C0007A9
:10DE5000000F10300794087711204877887FF92148
:10DE60000840F721801C0840EF210840012630437C
:10DE700069468877142109A8FDF777F908A8099061
:10DE800007A80A9069468E851420CC850886688884
:10DE90002B1D09AAA2DF0EB070BD1FB500226B4674
:10DEA0001A70197281680191827506C86846904798
:10DEB0001FBD000070B50178002907D0012901D0ED
:10DEC000022902D14068FDF7AFFC70BD0F4C0E4D2A
:10DED00020782818FDF788FD2078401CC2B2A818C9
:10DEE00022702038C07F0A2801D0142AEDD30649B9
:10DEF0000748FEF74BF9082803D0002801D0FDF7AA
:10DF000093FC0020207070BD04210020E81F002039
:10DF1000902300207CB50178264D002934D00129BA
:10DF20000CD002292DD16A461170C068691C01907D
:10DF30000122C81DFFF738FA684630E040680178D2
:10DF40001D48FDF79AFC01261B4C002803D06946AA
:10DF50000E70019006E0A068E168814205D00020C3
:10DF600069460870084669688847A068E168081A29
:10DF7000A188884206D80F490122491CC81DFFF715
:10DF800013FA7CBDAE707CBD0B480A491030FDF71A
:10DF900057FC002806D00320694608706846696867
:10DFA00088477CBD0349012208460830FFF794FAF0
:10DFB0007CBD00008420002098260020F0B50C468F
:10DFC000012185B005464902FFF79BFB03210902A9
:10DFD0006F180026002826D0FF2125312846FFF79C
:10DFE0008BFB00281FD0FF2025302E508120800081
:10DFF000B860A07E002801D1012068600221684637
:10E0000001700920C0012918086808600390E17DAB
:10E0100068460172E0680190E675267606CC68468F
:10E02000083C90472DE004212846FFF76AFB0028B2
:10E0300027D0FF2109312846FFF75EFB002820D0BA
:10E0400021462846FFF740FCE07D617E884218D1DA
:10E05000207E002807D0617EE268E0752069E060DC
:10E06000267666760AE0A07E002801D1012068604D
:10E0700081208000B860E675617EE2682046FFF787
:10E0800085FCFF271D3739462846FFF735FB00285A
:10E090000FD0A08AA17D884204D221462846FFF7EE
:10E0A000ADFE06E0EE51A17D002902D02046FFF72B
:10E0B000F4FEFF27453739462846FFF71DFB0028A9
:10E0C0000ED0EE51A07E002801D001202860E07D16
:10E0D000002805D0E675617EE2682046FFF756FC11
:10E0E00005B0F0BD0870000A4870022070470000BB
:10E0F00038B51549154A488890420FD04A78144CD3
:10E10000521CD2B24A70237B934208D3091D75DF9B
:10E11000002803D0A169002900D0884738BD002518
:10E120004D70217C002907D03B2176DF002803D0E9
:10E13000A169002900D0884761690029EED06846AE
:10E140000570884738BD00003C200020FFFF00001C
:10E15000E425002010B509494B788C785A1CD2B2BE
:10E16000944200D100220C78944201D1002010BDCD
:10E170000270486818214B43C01810BD742000205D
:10E18000FFB583B016460C9D0D9C1F4602220095DC
:10E190000194039800F00CF8002807D13B461022A8
:10E1A000314600950194039800F002F807B0F0BDE5
:10E1B000FFB583B0074600200C9C8646268805469E
:10E1C0003AE07868A9004218118868468180518831
:10E1D000C1800022694601A865DF002839D1684660
:10E1E00001780598814226D17046002801D000228E
:10E1F00000E002222088891842180D998A4227D807
:10E20000714600290AD1401C80B22080069A0499E8
:10E2100011542088401C20800120864621880698C1
:10E220000A18694601A865DF002812D169462088CE
:10E230000978401820806D1C3888A842C1DC7046DF
:10E2400000280AD02088801B401E80B2FF2802D9F7
:10E250000C2007B0F0BD069988550020F9E70000B2
:10E2600004480179002902D1007B002800D0012058
:10E27000704700002C200020010000070B00000068
:10E2800009000000080000000A0000000000000073
:10E2900000E0D7011516171811121314AC23002033
:10E2A000CC230020F823002011000300D1C301007B
:10E2B00012000300D1C3010013000300D1C3010009
:10E2C00014000300D1C30100C42500209ECADC2431
:10E2D0000EE5A9E093F3A3B50000406E00000050E6
:10E2E0007826002003000000FFFFFFFFFFFFFFFF75
:10E2F000FFFFFFFFFFFFFFFF000000000000000026
:10E3000000E0D7010300000028E30100E81F00201F
:10E31000D4000000DEB40100FCE30100BC200020BA
:10E32000640E0000EEB401000000FFFF01000200D7
:10E3300000000000000000000000000000000000DD
:10E3400000000000000000000000000000000000CD
:10E3500000000000000000000000000000000000BD
:10E3600000000000000000000000000084250020E4
:10E3700000000000A42500200000000000000000B4
:10E38000000000000000000000000000000000008D
:10E39000000000000000000000000000000000007D
:10E3A000000000000000000000000000000000006D
:10E3B000000000000000000000000000000000005D
:10E3C00000000000000000000000000000200040ED
:10E3D000000000000000000000000000000000003D
:10E3E000000000000000000000000000000000002D
:0CE3F00000000000000000000024F40009
:040000050001B0C185
:00000001FF
