:020000040001F9
:10B00000B0370020D5B00100EFB00100F1B0010071
:10B010000000000000000000000000000000000030
:10B02000000000000000000000000000F3B001007C
:10B030000000000000000000F5B00100F7B00100C2
:10B040009DB60100F9B00100A5B8010011B70100DB
:10B05000F9B0010000000000E1B40100B9B4010042
:10B06000F9B00100F9B00100EDB70100F9B001003D
:10B07000F9B00100F9B00100F9B00100F9B0010028
:10B08000F9B00100F1B60100F9B00100F9B001001A
:10B0900025B70100F9B001002DB70100F9B001009A
:10B0A000F9B00100F9B0010000000000000000004C
:10B0B0000000000000000000000000000000000090
:10B0C0000348854600F0C8F900480047C1D7010091
:10B0D000B03700200321094802680A43026008488B
:10B0E00002680A4302600748804707480047FEE7B6
:10B0F000FEE7FEE7FEE7FEE7FEE70000240500406E
:10B10000540500404DB70100C1B0010030B50B46F9
:10B11000014600202022012409E00D46D5409D4231
:10B1200005D31D469540491B2546954040191546B7
:10B13000521E002DF1DC30BD70B5002425460028DC
:10B1400001DA01244042002901DA01254942FFF7D2
:10B15000DDFFAC4200D04042002C00D0494270BD1F
:10B1600003460B439B0703D009E008C9121F08C020
:10B17000042AFAD203E00B780370401C491C521ECB
:10B18000F9D27047D2B201E00270401C491EFBD2D6
:10B1900070470022F6E710B513460A4604461946E2
:10B1A000FFF7F0FF204610BD421C0178401C00292B
:10B1B000FBD1801A70470000F0B51FB488B00B991E
:10B1C0000998002448400999C00F4900490809918D
:10B1D000C0070B990090490049080B9109990898FC
:10B1E000A64608431CD00B990A98084318D0099822
:10B1F00001244000420D4800410D09982405000338
:10B20000000B204309900B980003000B20430B9088
:10B2100050181C494018002201901446104605E0C1
:10B22000002001460DB0F0BD032801DA034600E01E
:10B2300003239C46C11A0AAE0AE05F0008ADED5B2D
:10B240004F00F75B7D430027AA187C41491C5B1E19
:10B250006145F2DD410004AB5A522104120C0A434D
:10B26000240C401C0828DFDB0198029000997046EE
:10B2700001910090059B049A0799069800F09AF8AE
:10B28000D0E700000DFCFFFF0EB5C217C10F504004
:10B29000CA0740180021054B0293019200910A460B
:10B2A0000B4600F087F803B000BD00003304000037
:10B2B00070B5CD0F4A0009030123090B1B05194383
:10B2C0000B4BED070024520D9A4201DA002070BDAD
:10B2D000074B34339A4203DC9A1A00F04DF802E02F
:10B2E0000449511888402C43F1D0404270BD000001
:10B2F000FF030000CDFBFFFFF0B51FB406460020A2
:10B3000082B005464024019100901BE0019922463D
:10B310000F46304600F030F8049A059B801A994198
:10B3200010D310461946224600F016F8361A8F41FF
:10B330000197224601200021009F00F00DF83818E7
:10B340004D4100902046641E0028DFDC019B0098E0
:10B350002946324607B0F0BD10B5202A04DB01466D
:10B36000203A9140002010BD914020239C1A0346B2
:10B37000E3401943904010BD10B5202A04DB084675
:10B38000203AD040002110BD0B46D340D0402024AD
:10B39000A21A91400843194610BD10B5002B08DAD7
:10B3A0000024401C614192185B411A4301D14008BE
:10B3B000400010BDF0B51FB482B005460C0003D0AC
:10B3C000084600F09DFA02E000F09AFA20300246AA
:10B3D000009021462846FFF7BFFF049B059A0446CC
:10B3E0000F4618431143084314D0184610431BD08E
:10B3F000009840210A1A18460599FFF7BDFF054637
:10B400000E46009A05990498FFF7A6FF084305D059
:10B41000012004E02046394607B0F0BD0020C117E6
:10B4200005430E432C43374300990E986305401A99
:10B430007905E40A00220C43FD0A0A3002D50020F7
:10B440000146E9E70105101969410C9C0D9D0019A1
:10B450006941FFF7A2FFDFE7064C0125064E05E034
:10B46000E36807CC2B430C3C98471034B442F7D325
:10B47000FFF72AFE80F60100A0F6010030B58C1817
:10B480000278401C13071B0F01D10378401C1209DE
:10B4900006D10278401C03E005780D70401C491C61
:10B4A0005B1EF9D101E00B70491C521EFBD1A14279
:10B4B000E6D3002030BD00000549002008600548A3
:10B4C000806805490862054901200860704700004E
:10B4D0000071004000750040E81F0020007000402F
:10B4E000F0B50024FF268BB00136012527460694CF
:10B4F000304603F059F8002807D0544840682842E5
:10B5000003D0304603F048F82C43361D6D007F1CF5
:10B51000B6B2042FECD3FF257D35284603F044F85E
:10B52000002809D0284603F037F86807044306AA24
:10B530000121002003F01CF8454D200714D00127FD
:10B54000002627420CD04348B20011180869096947
:10B55000C004C00E8903AA58890F002A00D0904762
:10B560007F00761C042EECD3002C6DDA00200890AE
:10B57000401E63E0281940300778B906890E009113
:10B5800000214156491C49D009A9009802F0F4FB5A
:10B59000002843D0B8090190009801F0D5FD800043
:10B5A0002F580198002F02D0032802D00DE0032865
:10B5B00034D1009808ABC20841079446985C490F03
:10B5C00001228A40104362469854009805210907D9
:10B5D00080004018072109024018006806A980036E
:10B5E000800F0290009802F0C7FB0028029802D05A
:10B5F000022802D012E0032810D10198032808D1B4
:10B60000029802281ED00221009802F083FF761CC7
:10B61000F6B2002F02D001990098B847641C042CA0
:10B62000A8D3002E10D06A460121002002F0A0FF0E
:10B6300006990098884207D006900898002634465C
:10B64000099097E70321DFE70BB0F0BD00630040EE
:10B65000A4260020006500408307FF22DB0E9A40ED
:10B660008907090E994000280BDA0007000F0838F7
:10B67000830808489B001818C36993430B43C361B0
:10B680007047830804489B001B18186890430843C0
:10B690001860704700ED00E000E400E0F8B5FF201E
:10B6A000013002F071FB002401250E4E0E4F0028E0
:10B6B00007D00E4804600120B0607D70002001F0CA
:10B6C0004BFDFF20053002F05FFB002808D0074843
:10B6D000001D04600220B060BD70012001F03CFD3F
:10B6E000F8BD00000003004090260020000100404B
:10B6F00010B506490020086048608860C8600349AA
:10B7000040390860486003F0EDFA10BD4011014077
:10B7100010B50249024801F00BFF10BDF8230020CC
:10B720000030004010B503F04FFA10BD10B50648C8
:10B730004068002805D08047002801D000F082FC36
:10B7400010BD01F0B5FE10BD0421002010B501F0C0
:10B7500053FF002805D01F491D484860C8131E49E3
:10B7600088611E48018CC9B201290BD1828C120755
:10B7700008D1028D1206120F042A03D1828D1206FF
:10B78000120F0AD0012921D1818C09071ED1018D08
:10B790000906090F0A2904D007E0114A0121916026
:10B7A000F5E7828D1206120F05D00D290ED1808D7E
:10B7B0000006000F0AD10B480168012904D00A498C
:10B7C000016001680129FCD1C021416110BD000068
:10B7D000DFFF07C000050040006C0040C00F00F014
:10B7E0000006004000EC06407593000070B52A4C3E
:10B7F00020682A4D002600280BD06868C00308D5B1
:10B800002660172002F098FE082002F0A5FA00F04A
:10B810004DFA6068002806D06868800303D566602A
:10B82000172002F091FEA068002806D06868400347
:10B8300003D5A660182002F07FFEE06800282AD019
:10B840006868000327D5E660182002F07DFE144AE0
:10B85000911E881E02F0DCF9114804210838415E6F
:10B86000C26B891ACA17120D5118091341650621B6
:10B87000415E026C891ACA17120D511809138165AD
:10B880000821415E426C891ACA17120D511809131A
:10B89000C16502F05DFF70BD40A1004000A3004003
:10B8A000F01F002010B50249024803F02DFD10BD25
:10B8B000EC260020002000400FB410B503A9044B73
:10B8C000044A029800F05EF810BC08BC04B01847A7
:10B8D000E7D30100002100200FB410B504A9074BE5
:10B8E00002AA039800F04EF8044602A9002000F0D6
:10B8F000B7F9204610BC08BC04B0184761BC010071
:10B900002021020C01D010211046020A01D010465D
:10B910000839020901D01046091F820801D01046DB
:10B92000891E420801D0881E7047081A704730B43B
:10B930007446641E2578641CAB4200D21D46635DCC
:10B940005B00E31830BC184702E008C8121F08C1AA
:10B95000002AFAD170477047002001E001C1121F90
:10B96000002AFBD170470000202804DA0121814021
:10B970000348014201D001207047002070470000B9
:10B98000FC06FFBCFFB58FB00F460446002606E05C
:10B9900025280AD0129A11999047641C761C2078A9
:10B9A0000028F5D1304613B0F0BD00250121A14A91
:10B9B000009500E00543641C23780846203B98402E
:10B9C0001042F7D120782E2815D104200543607845
:10B9D000641C2A280AD101CF641C00900BE0009956
:10B9E0000A22514330394018641C009020780146E7
:10B9F00030390929F3D920786C280ED004DC4C2882
:10BA000013D06A2812D104E074280ED07A280DD100
:10BA10000BE001204005054307E00121090562789C
:10BA20000D43824201D16D18641C641C2078864647
:10BA300069284AD008DC0028B4D058286DD0632883
:10BA400010D0642808D140E070286BD0732812D041
:10BA5000752860D0782860D0129A70461199904766
:10BA6000761CE5E03878694608720020487202A822
:10BA70000190012003E0386801900020C0433F1D81
:10BA800069070CD5002500E06D1C00998D420FDA86
:10BA90008542F9DB0199495D0029F5D108E00025CF
:10BAA00000E06D1C8542FCDB0199495D0029F8D15D
:10BAB000761907E0019801990078491C0191129AC2
:10BAC000119990476D1EF5D2B2E00A200290002134
:10BAD0006802400F039102280CD001CFC1178446A1
:10BAE00000290DDA624608465242002181419446FF
:10BAF0002D2008E0FF1DFF08FF0003CF8446EFE77D
:10BB0000280504D52B206A46107401203CE0E80784
:10BB10003AD02020F7E70A2000E01020002103910E
:10BB2000029007E010200290002104200543082025
:10BB3000039100906802400F022810D001CF00212D
:10BB4000844600200D9028071FD5704670280CD021
:10BB5000029A1020039B42401A430CD015E0FF1DAF
:10BB6000FF08FF0003CF8446EBE740206A461074CD
:10BB700001200D900CE06046084306D030206A4654
:10BB800010747046507402200D907046582804D0EE
:10BB900029A001900DA80E900DE02CA0F9E76046B9
:10BBA000039B029AFFF7A8FB019B84469B5C0E9ABD
:10BBB000521E0E92137060460843F0D10E9805A9EC
:10BBC000081A20300190680701D5009801E0012093
:10BBD00000900199884203DD01460198081A00E0AF
:10BBE00000200025009006E004A8129A405D1199FB
:10BBF00090476D1C761C0D988542F5DB04E0129A87
:10BC0000302011999047761C0099481E0090002919
:10BC1000F5DC08E00E980E990078491C0E91129AF6
:10BC200011999047761C0199481E01900029F1DC7A
:10BC3000641CB4E60928010030313233343536371C
:10BC40003839616263646566000000003031323368
:10BC50003435363738394142434445460000000008
:10BC60000A68531C0B601070704700001CB50B492C
:10BC7000C868096900900191684602F04DF80849CA
:10BC800001204860074801680902090A02071143B8
:10BC900001600549802008601CBD0000C4F501005A
:10BCA0000073004004E400E000E100E01C48016A89
:10BCB000002904DB016A282901DA0A214166016AA8
:10BCC000282904DB016A502901DA1E214166016A34
:10BCD000502904DB016A642901DA28214166016ADE
:10BCE000642904DB016A782901DA32214166016A9C
:10BCF000782904DB016AA02901DA3C214166016A46
:10BD0000A02904DB016AC82901DA46214166016ADB
:10BD1000C82904DB016AF02901DA55214166704720
:10BD2000E81F0020F7B584B0064600251788158067
:10BD300020300290407B1446002806D03A46214627
:10BD4000059800F08BFD050009D1B078002823D0BC
:10BD5000059886462088001DB84202D90C2007B0FD
:10BD6000F0BD684679DF0028F9D1218803207246AA
:10BD7000505420881921401C80B220801154208802
:10BD80007146401C80B2208041186846008803F04C
:10BD90004FFB218840182080F078002817D0218898
:10BDA00003230A46F356C91C0598B942D6D8022186
:10BDB000815421880122491C89B221804254218862
:10BDC000491C89B2218043542088401C208070681F
:10BDD000002817D021880023C3560A46C91C05989D
:10BDE000B942BBD80221815421880A22491C89B258
:10BDF000218042542188491C89B2218043542088E3
:10BE0000401C2080308900280AD0009430460197D9
:10BE1000062202210830059B03F058FB05009ED145
:10BE2000308A00280AD00094304601970722032167
:10BE30001030059B03F04AFB050090D1308B0028A1
:10BE40000AD0009430460197152214211830059B22
:10BE500003F03CFB050082D1306A002806D03B4647
:10BE60002246059901F0E0F90500D8D1706A002852
:10BE700006D03B462246059901F03CFE0500CED196
:10BE80000298007B002807D03B46224630460599A1
:10BE900002F064FD0500C2D13078002807D03B468F
:10BEA00022463046059901F0E7FE0500B7D1284645
:10BEB00055E70000174A0021535C002B01D00122F6
:10BEC00003E0491C0629F7D300221349012806D0B4
:10BED00002280BD0032810D0042818D112E048788B
:10BEE000002803D0002A01D001207047887800285C
:10BEF00003D0002A01D002207047C878002801D062
:10BF0000032070470879002801D0042070470020E2
:10BF10007047000085200020A824002010B50122D1
:10BF20000221002000F0D2FE002801D0072812D103
:10BF300007220221012000F0C9FE002801D00728B5
:10BF400009D100210A22084600F0C0FE002801D0D5
:10BF5000072800D1002010BD10B5074C206E022824
:10BF600009D1606EFFF790F9044A054BFFF724F9F9
:10BF7000FFF79EF9606610BDE81F002033333333AE
:10BF80003333E33F10B5022000F056FD10BD000032
:10BF900070B50024064D06E06968E000085C0121E8
:10BFA00001F09EFF641C28788442F5D3002070BD08
:10BFB000B0200020F8B515460C460646052A01D2E9
:10BFC0000720F8BD02F064F8002803D102F032F82F
:10BFD0000028F6D1104900204E600C70C8608D60BA
:10BFE00008610E4D0DE0E0006968801900918178CC
:10BFF0006A46517000780A4A694601F0BDFF002880
:10C00000DFD12046641EE4B20028ECD1054A0021AD
:10C01000024800F04DF8F8BDB020002058F60100AD
:10C0200061D4010021D30100BFF34F8F04490348BD
:10C03000C860BFF34F8F00BFFDE700000400FA05A2
:10C0400000ED00E00EB50021029000916A460191DA
:10C050000148FFF7E9FF0EBD0140000010B58268FE
:10C06000C368934203D001F0ABF9002010BD052056
:10C0700010BD002906D0002A02D0531E134203D05F
:10C08000092070470E207047016083800021816085
:10C09000C1600846704710B58268C3689A1A8388E1
:10C0A0009A4203D801F096F9002010BD042010BD7B
:10C0B0000A4B5B68002B07D0002A07D0002805D068
:10C0C0000068037C002B03D00820704707207047CE
:10C0D000002303744174426118467047D420002045
:10C0E000FFB507469007002581B01E46144600287C
:10C0F00025D1002C23D002F053FB3046114EF060C6
:10C10000304610300570457002998170446075604A
:10C11000357001240C487570240504600321142037
:10C12000FFF79AFA09480460094CA760032111201F
:10C13000FFF792FA6068B060002005B0F0BD0720FC
:10C14000FBE70000C420002080E200E000E100E006
:10C1500000150140FEB51F4B5B68002B30D0002856
:10C160002ED0052901D20720FEBD4369002B27D020
:10C17000437C012B26D00027029104460025694606
:10C1800016460D70684600F0D1F801A803F088F952
:10C19000002819D0012101700F494460496881606D
:10C1A000029907614661C16068460A490079487092
:10C1B0006846007800F0D8F802F048FD2846FEBD39
:10C1C0000820FEBD0F46D7E768460425007800F03A
:10C1D000CBF8F3E7D42000200015014010B5084942
:10C1E000496800290AD0002808D04169002905D0F3
:10C1F00000210174022102F051FD10BD082010BD84
:10C20000D420002070B50B4D0146AE780A48FFF7E8
:10C2100025FF0446002E0AD00020A870691C0122C8
:10C22000C81D02F009F8002801D0FFF70BFF2046D7
:10C2300070BD0000E420002028270020F0B5274E24
:10C2400089B01F460D00044672601CD0A88829687A
:10C2500082B22348FFF70DFF002815D1A889A968ED
:10C2600082B21F481030FFF704FF00280CD12022B3
:10C270001C496846FEF774FF60690690207C002820
:10C2800004D0012103E0072009B0F0BD0021684679
:10C2900001750777607C002800D00E20694648753C
:10C2A000E0680290A06803902068019060680090A8
:10C2B0000A480D4A083001F07FFF0028E4D1B07031
:10C2C0002068401CE0D00548083001F0E3FF034936
:10C2D0000122491CC81D01F0AFFFD5E7E420002072
:10C2E0002827002060F6010061F2010010B5014628
:10C2F0000C48FFF7D0FE040012D10B4802F094F86E
:10C3000000280DD1084907480839FFF7A7FE002883
:10C3100006D1054901220839034802F025F80446F0
:10C32000204610BD38270020EC20002030B5EFF368
:10C33000108172B6094A54680123002C04D003709E
:10C34000002900D162B630BD5360054B1D68054C15
:10C35000254015601C6000220270F1E7F8200020E3
:10C3600080E100E0FC06FFBC08494A68002A0CD0C6
:10C3700000280AD1EFF3108072B60A68044B1A60E5
:10C3800000224A60002800D162B67047F8200020E1
:10C3900000E100E0F8B5074608680C460526411C98
:10C3A00001253602002906D02946814019488160BE
:10C3B000206802F094F86068411C02D0002102F06D
:10C3C0007BF83968A06989194862607D217D3A68E7
:10C3D00008439119C866386806CC80194261C1606B
:10C3E000207B083C012814D1A068411C02D0002108
:10C3F00002F062F8E068411C05D085400548856080
:10C40000E06802F06CF83A68E1689219A0689160FF
:10C410001061F8BD00050050F0B50C4693B01F2127
:10C420006A461180072600279180002809D0C1782C
:10C4300049070DD502A9FFF775FC002809D102AD07
:10C4400001E000251780002C0ED0E078002802D0F3
:10C45000304613B0F0BD01AA0AA92046FFF762FCDE
:10C460000028F6D10AAA02E06846002287806846C2
:10C470008088C3B268460088C1B2284672DFE8E708
:10C48000FFB581B01E460A9F1346040047D0002B1B
:10C4900045D0504D012028700020E8702022194618
:10C4A0004D48FEF75DFE00206F61C0432E6128817C
:10C4B000284607211830FEF76CFE47483C21203003
:10C4C000FEF767FE4448217820300170A178817022
:10C4D000E178C170617841703F4A656923695563AD
:10C4E000114613632031E368A268CB608A603A4941
:10C4F000E369A269CB638A63616A00291AD00146A5
:10C500003C310246483241628A60636A1B880B8074
:10C51000616A436A898899800021436A07E00E2096
:10C5200005B0F0BD656AAD686D5C5554491C9D88C9
:10C530008D42F7D8A16A00291CD0274A94321146AF
:10C540000C398A608162A36A9B888B80A16A836AA6
:10C55000098819800021836A04E0A56AAD686D5CD2
:10C560005554491C9D888D42F7D82C210A5D1A49E3
:10C5700040310A73216A002909D016490A31016243
:10C58000226A52884A80216A026A09881180616899
:10C59000002900D04160104A0E490020B3322031FA
:10C5A000C3001B1A85009B180C68401C63510828A7
:10C5B000F6DB094A0020EB32030185009B188C68EA
:10C5C000401C63510828F7DB034802992030FFF72D
:10C5D00023FFA5E76C200020A824002010B50188C7
:10C5E000134C102915D0112919D01B2910D1007A0C
:10C5F00000280DD1E0780521401CFEF787FD084694
:10C6000000F036F8002803D06169002900D088477F
:10C6100010BD817D0129FBD18088208110BD0021C2
:10C620006171808821898842F8D10120E8E7000003
:10C630006C20002010B574DF0B4C012060710B4999
:10C640000620C87000210948FFF7E6FE002809D13E
:10C65000E07800F00DF8002803D06169002900D0CF
:10C660008847002010BD00006C200020C824002056
:10C67000F1B53F4C88B0207800280AD00898E070C7
:10C6800006A800F0E1FE06980125002804D0657098
:10C690006AE0082009B0F0BD3548002707211830AE
:10C6A000FEF777FD334E7078002802D0E07801283D
:10C6B00007D0B07800280CD0E078012801D00228FB
:10C6C00007D12169002903D025710820884700E09F
:10C6D00027710898FFF7EEFBE0702169002909D067
:10C6E000032801D0042805D13078002802D06079D1
:10C6F000002811D0A77118216846FEF74AFD684648
:10C7000007700772E1781A480B001830FFF70FF92D
:10C71000052E080F191D2000A57107208847EAE79C
:10C72000A5700190684605704782078213E00221D8
:10C73000A170019068460570B189418231890182FA
:10C7400009E0684602F052F902E0684602F07AF920
:10C75000E078002803D0684673DF00289AD1216969
:10C76000002901D0A0788847002093E7A770F6E75A
:10C770006C200020A824002070B5054601461C222C
:10C780000E48FEF7EDFC0E4C0026267029680029A5
:10C7900006D00822201DFEF7E3FC201D7ADF02E010
:10C7A0000748001D7BDF002807D1401E60806670AF
:10C7B000044A00210448FFF77BFC70BD742600206A
:10C7C0009C2000203DF4010040F60100F8B5214C0A
:10C7D0000146028800261E48E589102A13D01E4F04
:10C7E000112A1FD0122A2BD0502A1AD1881DC9888D
:10C7F000A94216D14189022913D10C3000F0FEF86C
:10C8000000280CD112E08A88044642801048082291
:10C810000C301831FEF7A4FC6670002D01D100F039
:10C820004BFDF8BD0021C943418046703868FFF7D1
:10C83000D5FC0028F5D0A1690029F2D08847F8BDC1
:10C84000034808220C300831FEF78AFCE7E70000B5
:10C850009C2000207426002040F601007CB505468F
:10C8600008880C460930904201D90C207CBD6846EE
:10C8700071DF0028FAD121880820685420881B2104
:10C88000401C80B220802954208800A9401C80B21E
:10C890002080401906220131FEF762FC208869469B
:10C8A000801D80B220800978002900D00121295400
:10C8B0002088401C208000207CBD000010B504466C
:10C8C000FFF784FF2146064800F040F8204601F0BB
:10C8D000AFFE2046FFF782FE204600F039F910BD7A
:10C8E0002024002030B5184B0D4604000FCB85B036
:10C8F00003936B4607C324D0002D22D00020C043F1
:10C90000A0822868A0610020A0752146684663DFE8
:10C91000002814D121786846817401210182A21C6B
:10C9200004A90120A0DF002809D12946204601F0F2
:10C930006CFF002803D12946204602F014FC05B004
:10C9400030BD0E20FBE7000044F6010010B50028C2
:10C950001BD0002919D00A88102A17D0112A17D005
:10C96000502A12D104468A1DC888238A123198425F
:10C9700002D15389022B0FD0A388984205D1A36915
:10C98000002B02D052892046984710BD898801E0CB
:10C990000021C943818210BD084600F02FF800280D
:10C9A00000D00120A07510BD07B584B000280DD0BF
:10C9B000828A114B9A420BD0827D002A08D06A46A7
:10C9C000128B142A06D9072007B000BD0E20FBE702
:10C9D0000820F9E7002200920192029203928289D4
:10C9E0006B461A80039106A9029101219970808AF1
:10C9F0006946A6DFE8E70000FFFF00004178027803
:10CA000008021043C007C00F704700000149085CCE
:10CA10007047000010F601000549095C05480069EF
:10CA2000C840C007C00F00D0012001214840704716
:10CA300010F601000005005005490B5C05494A68E5
:10CA400001209840034693438B601040C8607047B4
:10CA50000CF601000005005010B50349085C0121E7
:10CA600001F07AFD10BD00000CF6010010B503497D
:10CA7000085C002101F070FD10BD00000CF6010003
:10CA80000549095C05484068C840C007C00F00D090
:10CA900001200121484070470CF6010000050050BC
:10CAA0007CB50024074E2546305D01220095002309
:10CAB0001146019501F0C4FC641C042CF4D300F071
:10CAC00003F87CBD0CF6010010B500242046FFF7EA
:10CAD000C3FF641C042CF9D310BD10B500242046FC
:10CAE000FFF7C4FF641C042CF9D310BD02460020DC
:10CAF00010B5C043054B00215C5C944201D108464F
:10CB000010BD491C0429F7D310BD000010F6010028
:10CB100070B50E4E00250C46306000290DD0012066
:10CB200000F0AEF8002801D0022005E0002000F05F
:10CB3000A7F8002800D00B2020707068002802D1D0
:10CB4000FFF7ECF90546284670BD00006420002080
:10CB500010B51C4C0188606810290DD011290AD12C
:10CB6000401E606007D1FFF7D9F9002803D0216883
:10CB7000002900D0884710BD00281ED100210122C5
:10CB8000084600F0A3F8002801D0072811D1072299
:10CB90000221012000F09AF8002801D0072808D1CE
:10CBA00004220221002000F091F8002805D0072877
:10CBB00003D02168002900D088476068401C60606D
:10CBC00010BD00006420002010B5002000F0BCF96A
:10CBD000002801D0062807D1012000F0B5F900286F
:10CBE00001D0062800D1002010BD0000F3B581B0AF
:10CBF0000D460198FFF77AFF0446042813D21D481A
:10CC00001D4F1E4E002D27D0012D0DD0022D0AD113
:10CC100060002018C0194578002D04D0F168002963
:10CC200001D028468847FEBD610061187D5CCF19A0
:10CC3000797800290BD071680A2251430F4A806825
:10CC4000921CFFF787FA002801D10198B0700B48B9
:10CC5000B97810300155DFE78068FFF7BFFA074861
:10CC6000610061181030C919005D8D78A842D3D0D9
:10CC7000FEBD000014F601007C240020502000209E
:10CC800010B5FFF7C9FE10BD014610B50D480429C7
:10CC9000408806D007290CD00A2901D101F0FCFEFA
:10CCA00010BD132176DF09E00028F9D0FFF7CAF99B
:10CCB00010BD05498842FBD1FFF7BCFC0828F3D121
:10CCC00010BD0000E81F0020FFFF000070B500232A
:10CCD000042811D2440004190D4D012A02D1012962
:10CCE0000DD0002246008019094E801900290CD071
:10CCF000012906D0022906D00723184670BD0E3040
:10CD0000C2B22A55F9E74270F7E78270F5E70000F2
:10CD10007C24002010B5054A0146127A0020D20773
:10CD200002D0084600F050F810BD0000502000204E
:10CD3000F8B506461F4800248660C26041600F4671
:10CD4000B00720D50025012211462846FFF7BEFF77
:10CD50006D1C0446042D02D2002CF4D013E0002CEC
:10CD600011D17A0804211448FFF724F904000AD1EC
:10CD7000FFF70EF9040006D10F48104A0021001FEA
:10CD8000FFF796F90446F00701D0FFF789FE002C63
:10CD90000ED109480A4A00210C38FFF789F904002E
:10CDA00006D10548074A01210838FFF781F90446F2
:10CDB0002046F8BD5020002020F6010059CF010088
:10CDC00041D6010085BF0100F8B55D4C054660788D
:10CDD0000026002803D000206070FFF775FE0120B8
:10CDE000584F2B00FEF7A3FD18970D0D2E3D4A5FFF
:10CDF00064686F686FA97777777777979A9DA0A90E
:10CE0000A9950020FFF73CFE00280AD00020FFF77C
:10CE100023FE022D02D1E120C0000BE07D20400165
:10CE200008E00020FFF722FE022D01D1C82001E01A
:10CE3000FF20913025706421FEF768F96168414355
:10CE400000222BE00020FFF71BFE002805D0002069
:10CE5000FFF702FE19204001ECE70020FFF706FE75
:10CE6000E4E70020FFF70CFE002803D00020FFF7C6
:10CE7000F3FDD3E70020FFF7F9FDD9E70020FFF726
:10CE8000FFFD002803D00020FFF7E6FD02E00020B0
:10CE9000FFF7ECFD25706068410000223868FFF75D
:10CEA00059F9064635E00020FFF7C6FD257007E07A
:10CEB00000203FE025702CE060700120FFF7BCFDF2
:10CEC00000226168EAE760700120FFF7B5FD606845
:10CED00081004118E1E77868FFF780F906461120E4
:10CEE000401B01D0002E03D00220FFF7B5FD10E05B
:10CEF00001280BD9C82148436421FEF707F961686E
:10CF0000002241437868FFF725F906460220FFF723
:10CF1000ADFD3046F8BDFFF7D7FDCBE7FFF7D4FDF9
:10CF2000C6E7FFF7D1FD04E0FFF7CEFD0020FFF7D5
:10CF30009DFD0120FFF79AFDBCE7FFF7CEFDB9E7A5
:10CF40005020002014F6010010B5FFF75FFD03210B
:10CF500001F0CFFA002010BD10B500780221FFF7D4
:10CF600045FE10BDF0B5002589B0049503950295E6
:10CF70002F462E46494C019589E0484A0832911EB9
:10CF8000881E00F045FE454A0E32911E881E00F0B4
:10CF900059FE642D1DDD60696430854219DC042171
:10CFA000615E0498401804900621615E0398401861
:10CFB00003900821615E0298401802900A21615E88
:10CFC0000198401801900C20205E3F180E20205E32
:10CFD0003618606900906430854257D100990498F2
:10CFE000FEF7AAF86062079000990398FEF7A4F88C
:10CFF000A062069000990298FEF79EF8E062059004
:10D0000000990198FEF798F8206338460099FEF7DA
:10D0100093F8606330460099FEF78EF8A06320A075
:10D02000059B069A0799FEF747FC606A0123404278
:10D03000C117490F0818C0108446E063A06A9B031B
:10D040004042C117490F0818C2102264E06A181A3A
:10D05000C3175B0F1818C3106364206B4042C117DD
:10D06000890F08188010A064606B4042C117890FB7
:10D0700008188010E064A06B4042C117890F08189F
:10D080008010206561460EA0FEF716FC6D1C6069DD
:10D090006530854200DA70E709B0F0BDE81F002076
:10D0A0004D45414E20616363656C2078203A202510
:10D0B000642C20793A25642C5A3A2564200D0A0004
:10D0C0006F666673657420616363656C2078203ACF
:10D0D0002025642C20793A25642C5A3A2564200DA9
:10D0E0000A0000000022D243830004490428CA50E9
:10D0F00002D308182030027770470000A4260020D1
:10D10000F0B50025ED43002A02D00023042601E0FB
:10D11000042308260B4C04E09F00E7597F1C04D031
:10D120005B1CB342F8D32846F0BD26185DB220360A
:10D1300035709E00A151002AF5D1E1182031087701
:10D14000F1E70000A4260020024909182020085613
:10D1500070470000A426002070B5084C050009D0D7
:10D1600010342168002907D00868206049682846E3
:10D170008847F6E70834F4E770BD000090260020E9
:10D18000F8B52348416800293ED00E6821494C6813
:10D1900087688078E11B0D022D0AED1C002814D150
:10D1A00001201D4A000450601B4A403A50601B4950
:10D1B000400008601A4908601A49012008602F20C1
:10D1C00000F002FE124901208870B54200D23546B7
:10D1D000E81900020F4B000A403318600D4A5168ED
:10D1E000001B091B0902090A0002000AC91C81422E
:10D1F00009D9506818602F2000F0E6FD012007498A
:10D20000400480390860F8BD01F0CAFAF8BD00009A
:10D21000C4200020001501404013014080E200E0DE
:10D2200000E100E000100140F8B506461088144601
:10D230008446801D0D46984201D90C20F8BD3288E5
:10D240000720062AFAD31927FF01184BBA4201D941
:10D250009A42F3D171880629F0D3B94201D9994293
:10D26000ECD19A4203D0994201D08A42E6D80521F6
:10D270006046295420881221401C80B22080295405
:10D280002088401C80B220804119308802F0D0F8FC
:10D290002188401880B220804119708802F0C8F8B7
:10D2A0002188401820800020F8BD0000FFFF00000A
:10D2B00010B5FEF7C7FE10BDF8B5164800F08EF9A0
:10D2C000144D00260C3D144C002807D0616900293C
:10D2D0001CD001206A461070684616E028780028A5
:10D2E00005D06169002911D0684606700DE06878A4
:10D2F00000280DD0A168094800220068FEF72AFF27
:10D30000002803D0A169002900D088472E70F8BDFD
:10D310006168F0E7A82000207426002040F6010094
:10D32000F8B500260124154D23E06968F000471880
:10D33000387821462A698140114218D08A432A61EF
:10D3400000F06EFE3A782146EB68914019400346A2
:10D35000934099420BD17978012901D0012100E055
:10D3600000217B684140002B01D010469847761C75
:10D37000F6B228788642D8D3F8BD0000B02000204D
:10D3800010B50E4900230A784C78A24212D0521CE4
:10D39000D2B20A70022A00D10B700A78074B9200B1
:10D3A00018339A580260886810180002000A8860D2
:10D3B000012010BD0360002010BD0000C42000202B
:10D3C000826883881A4003689A5C0A708168491CE5
:10D3D00081607047C26883881A4003689954C168A5
:10D3E000491CC160704710B50446C0B2FEF77EFF0D
:10D3F000204610BD10B5002823D0124B0022001F7C
:10D40000196803E0814203D80A4649680029F9D126
:10D41000002A0AD01368841A9C4204D100681818A4
:10D420001060104602E0506000E01860002907D04C
:10D4300002680B1A934203D10B68D2180260496844
:10D44000416010BD1C210020002804D00349496E12
:10D45000016000207047032070470000482700202B
:10D46000F8B50746104E0125BD403068FEF7B6FE00
:10D4700000280DD10D4C2069284207D1384600F014
:10D48000CFFD0028E06804D0284303E0A8432061D2
:10D49000F8BDA843E0602069002228432061A1680C
:10D4A0003068FEF757FEF8BD58F60100B0200020A6
:10D4B000F8B51E4C2078002836D0E06800260028F9
:10D4C0000CD00025607800282ED1684652DF052850
:10D4D00006D0002806D0FEF7B5FD0BE00125F1E7E8
:10D4E000012607E0009800F0C5FC2169002901D061
:10D4F00000988847002D13D16078002814D16088E7
:10D5000069460880A06861DF052804D0002804D09F
:10D51000FEF798FD04E0012502E0E168A068884775
:10D52000002ECFD0002DE5D0F8BD00000421002052
:10D530007FB50C460D46203506466978287801915E
:10D54000009022462632D11E3046E36901F0E3FC0A
:10D55000002819D1E87800281DD1207B022801D0AD
:10D56000032818D12269E169914214D16269E2610C
:10D57000E37B2B70217E8906C90F6970032804D0D4
:10D580003146204601F060FC7FBD009131462046C7
:10D5900001F046FD7FBD20460C3007C801AB07C334
:10D5A000E878002100280ED00920C0013218506C04
:10D5B0005064820701D5012002E0400705D5022012
:10D5C0006A46107001E0684601702971207E4007AC
:10D5D000E0D422686846616890477FBD418805486D
:10D5E0000288914204D34088814201D801207047CB
:10D5F00000207047A02000201048018CC9B20129EA
:10D6000017D1818C090714D1018D09060A0F03D1A6
:10D61000828D1206120F0ED0090F012903D1828DBF
:10D620001206120F07D0032903D1808D0006000FC8
:10D6300001D000207047012070470000C00F00F0AB
:10D6400010B50448017AC90702D00078FFF7BCFB87
:10D6500010BD000050200020F0B5284C21461039A4
:10D6600048688B68227886469C46CF78667836E094
:10D67000182353436168521CC918A378D2B293424D
:10D6800000D100220B78022B02D0032B27D123E0FC
:10D6900003464D68194603E0A94204D00B46C96908
:10D6A00000291CD0F8E7002919D08B4208D1C069A5
:10D6B000002805D1124F0125BD600025AC46012789
:10D6C0000D68C969D961002909D00B685B190B6025
:10D6D00005E00174C06900E000210028F9D19642FC
:10D6E000C6D10649624610398A604860CF707045DD
:10D6F00001D00120F0BD0020F0BD0000D4200020AA
:10D7000000100140F8B52C4E0446706800250090CA
:10D7100041E0002C02D02046E46920E0264818238E
:10D720001030017842684B43491CC9B2D2180170CD
:10D730008378994200D105701178506801292CD165
:10D74000017C002929D191684160D168816011690B
:10D75000C16051698161F178002900D0456043685A
:10D76000B268164F991A0902090AB94202D28268B0
:10D77000891806E0D11A09028268090A8A4202D988
:10D78000511A016000E00560456001218560017467
:10D79000C56101F063FA002CBBD107481030017855
:10D7A00040788142BAD171680098814201D001204D
:10D7B000F8BD0020F8BD0000C4200020FFFF7F005E
:10D7C000A8B000238F4A05211846FEF789FC0028DF
:10D7D00001D0FEF737FC18228B4904A8FDF7C0FCE6
:10D7E000FF21013189480090401801910391029076
:10D7F0000323874A694604A8FEF720FD002801D0CC
:10D80000FEF720FC152000F060FE162000F05DFE03
:10D81000172000F05AFE182000F057FE082000F0F4
:10D8200054FE0B2000F051FE092000F04EFE794A14
:10D8300079490320FFF77CFA002801D0FEF702FCAB
:10D8400069460020FFF764F9002801D0FEF7FAFBD3
:10D850006846007802287DD00020694608716A4831
:10D860006A49203800680590002348225C3905A8E1
:10D8700001F052F9002801D0FEF7E4FB6A460121CD
:10D88000002001F031F9002801D0FEF7DBFB6846EB
:10D8900001F020F9002801D0FEF7D4FB5F4801F029
:10D8A0000FF9002801D0FEF7CDFB11206946087260
:10D8B00006225BA102A87CDF002801D0FEF7C2FB94
:10D8C0000024009410216846019401803C2141808D
:10D8D000FF2184809131C1807ADF002801D0FEF7DA
:10D8E000B1FB5148009047486946A030FEF7FAFF67
:10D8F000002801D0FEF7A6FB3C2101A8FDF749FC5A
:10D9000002216846017184710521C1713C2110A872
:10D91000FDF73FFC012510A8058244481590202101
:10D920001FA8FDF736FC18A8C57740202390B42027
:10D9300024903F4B1FAA10A9009401A8FEF7A0FD58
:10D94000002801D0FEF77EFB1C216846FDF721FC74
:10D95000052000E054E0C00301900F200004029075
:10D960000094032168460173C48104743148059012
:10D97000314806906846FEF7FFFE002801D0FEF70A
:10D9800061FB2EA0FDF798FF0320FEF771FE002833
:10D9900001D0FEF757FB01F02FFAFEF767F92B488D
:10D9A000056000F028F92AA0FDF786FF27A800F0FF
:10D9B00013F920A8017F2CA0FDF77EFFFFF7D2FA14
:10D9C00001F0DCF8194E2D4C103E2D4FFEF7C4FA35
:10D9D0002CA16846726EFDF77FFF6846FDF7E4FBF9
:10D9E00082B208486946A030FEF7DEFF204600F00C
:10D9F000D3F9BD6048DF0028E8D0FEF723FBE5E758
:10DA000001202AE780230020E4F501008021002086
:10DA100001F2010089CC0100CD0C0000BDC801005D
:10DA2000416C616D64610000E1E50100F81F0020B8
:10DA300011E6010001E70100B1D201000D0A5541D4
:10DA40005254205374617274210D0A00007000401A
:10DA50004D505536303530207465737420737461C1
:10DA60007274200D0A0000006D707536303530205C
:10DA70004944203A202578200D0A000040420F003A
:10DA800000A0004025640000F0B50B30C108C900BB
:10DA9000144F0026144A0FE003688B420BD38B42CD
:10DAA00005D95C1A4318456830C3083B00E0436859
:10DAB000136002C004E0021D10680028ECD130465B
:10DAC000002803D13868002801D00020F0BD064AA4
:10DAD00006481060064A121AD208D20044C001203B
:10DAE0003860D7E7202100201C210020B427002027
:10DAF000B02F002070B5144682880E460546208857
:10DB0000111D4118921C994201D8FE2A01D90C20FE
:10DB100070BD521C32542088FF21401C80B22080EE
:10DB200031542088401C80B220808119288801F05F
:10DB30007FFC2188401880B22080AA88002A09D062
:10DB4000A968002908D08019FDF70AFB2088A98858
:10DB500040182080002070BD072070BD37B582B00E
:10DB6000002014460D460090012302AA68210648B1
:10DB700000F0FCFA002805D1E3B22A4668210248E9
:10DB800000F0E2FA05B030BDC8F50100F7B5074670
:10DB9000561C82B015463046FFF776FF04460770E4
:10DBA000002005E003992218095C401C5170C0B2A6
:10DBB000A842F7D300200090F3B22246682105481E
:10DBC00000F0D4FA05462046FFF714FC284605B0BD
:10DBD000F0BD0000C8F5010038B5044601226946D1
:10DBE0007520FFF7BBFF002801D0FEF72BFA68462F
:10DBF0000078207038BD08B5002069460870012201
:10DC00006B20FFF7C3FF002801D0FEF71BFA08BD09
:10DC10007CB514460D460646062269463B20FFF7B2
:10DC20009DFF002801D0FEF70DFA6846008840BA33
:10DC300030806846408840BA28806846808840BA6C
:10DC400020807CBD7CB514460D46064606226946FA
:10DC50004320FFF783FF002801D0FEF7F3F9684661
:10DC6000008840BA30806846408840BA28806846BC
:10DC7000808840BA20807CBDF8B50F4601781446F4
:10DC80000546012902D16878002806D02088821C28
:10DC90009A422DD8012902D006E00720F8BD697804
:10DCA0004118891C994223D8181A801E86B26846EA
:10DCB00006802188B81C081869467DDF0028EDD150
:10DCC0002878022805D169460988B14201D809217E
:10DCD0000AE00821012805D16878B04202D86A46D6
:10DCE000108001E06846068068460088FE2801D959
:10DCF0000C20F8BD2288401CB8542088401C80B2FB
:10DD00002080395420886946401C208009884018AA
:10DD100020800020F8BD000010B501788A07417806
:10DD2000920F4907C90E406811438207540E0C43F5
:10DD30008103890F03D00321090408400443002014
:10DD400000F00AF803494868FF22120210402043FD
:10DD5000486010BD0075004010B5064902024B68CE
:10DD6000FF242402A3431A434A60002800D0012064
:10DD7000086010BD00750040C20843075B0F01201A
:10DD8000895C984008407047012189074018006865
:10DD9000002800D00120704700280FD00849094A08
:10DDA000096800BF00BF00BF00BF00BF00BF00BFC9
:10DDB00000BF914200D000BF401EF2D1704700006A
:10DDC000182100200024F40000280FD00849094A37
:10DDD000096800BF00BF00BF00BF00BF00BF00BF99
:10DDE00000BF914200D000BF401EF2D1704700003A
:10DDF000182100200024F40070B50E4C0025207876
:10DE0000002801D0852513E00021A1606160216117
:10DE1000E160094800680126304002D1032100F08A
:10DE20002FF800F0A5FE002801D104488661267075
:10DE3000284670BD9026002000E100E0000500406B
:10DE400038B50020694608706846FEF76FFA084C3E
:10DE50002078002801D1FFF7CFFFE068401CE06088
:10DE60000120A07068460078FEF77EFA38BD0000F9
:10DE70009026002010B5002801D1FFF76DF910BDE4
:10DE80008207D30EFF229A408907090E10B59940E8
:10DE900000280BDA03071B0F083B9C080C4BA4005F
:10DEA000E318DC6994430C43DC6107E08408094B08
:10DEB000A400E418236893430B432360C106C90EF2
:10DEC00001208840044908600449086010BD000032
:10DED00000ED00E000E400E080E200E000E100E0AE
:10DEE000F3B581B0054600F01BFC1F4F0028284603
:10DEF00017D0FFF729F9C0192030007F80090328C7
:10DF000002D001280BD005E018480069E840C0079E
:10DF1000C00F04D00321284600F0FCFAFEBD022108
:10DF2000F9E700F009FC0028F8D02846FFF70CF9C3
:10DF300004468000C11D0E4AF9318018026989B279
:10DF4000012632430261084600F026FB02980028B1
:10DF5000E4D02846FFF7F8F8800038580028DDD0D4
:10DF60000448A6404660FEBDA426002000050050DF
:10DF70000065004000630040FEB5044625480E469B
:10DF80000019202141560027C8171346401C01D014
:10DF900008273CE0F27819462046FFF7B1F805461D
:10DFA000401C33D0B07800280BD005200007A1001A
:10DFB0000918072000020918086802229043086027
:10DFC00007E000217378204600910A46019100F095
:10DFD0004BFAF078002810D00F48AA0010183178BA
:10DFE00002690E4B1A400261E206D20C8907890BC6
:10DFF0000A4301690A43026109E006483278401980
:10E000002030017F92011143017700E00427384658
:10E01000FEBD0000A426002000650040FFE0FCFFDC
:10E0200003490969C140C807C00F00D001207047EB
:10E030000005005070B5144D2879002801D0082043
:10E0400070BD114900204039421E0B182033401C7E
:10E05000C0B21A702028F8D300242046FFF742F8F7
:10E06000641CE4B2082CF8D303210620FFF708FF54
:10E07000FF207D3000F090FA01200449C00748607D
:10E0800001202871002070BDE426002000630040BC
:10E0900002480079002800D001207047E4260020C3
:10E0A000017928225143054A006889180522130284
:10E0B000C01802600220203188707047F8230020C9
:10E0C000F8B507460C460079282148431B494518F6
:10E0D0002E462036B078002801D00820F8BD0CC5A7
:10E0E0000020286070713071A07BF071607B083D6A
:10E0F000002802D0204600F035FE216810488A0032
:10E100001049521810606268920051180860052387
:10E1100038681B0206CCC0188160C2602168416269
:10E120002868083C002805D03868217B000B40B2E5
:10E13000FFF7A6FE0120B0700020F8BDF8230020F4
:10E140000C060000000700503EB5074D6C69ED69F4
:10E15000009402956C466170A3700192002269469A
:10E1600000F016F83EBD0000C4F501003EB50025E4
:10E17000069C009502956D466970AB700192002C6B
:10E1800001D0202200E00022294600F001F83EBD27
:10E1900070B50D46017928235943064BCC189107D9
:10E1A00001D0062070BD134601682A46204600F0C3
:10E1B00085FF70BDF8230020F8B506460F460079AC
:10E1C0001C2148431A4915464418E07E002801D016
:10E1D0000820F8BD39463046FEF7DCF8656038693E
:10E1E000206028460025002813D0FF223068397FA0
:10E1F0001D328550FF223068453285500323306838
:10E200001B020C4AC01842603068000B40B2FFF796
:10E2100037FE052230680421120280180160E5757E
:10E220002576A5750121E1762846A576F8BD000082
:10E23000EC26002080000200F8B503791C2463431B
:10E24000134C81251C19032766680023AD003F028B
:10E25000002E02D00668F619B560E67D002E0ED0BD
:10E26000237E002B07D06168002902D00068C01906
:10E2700045601120F8BD21610123227604E0E2759A
:10E280000025E1606576257600F01AF8F8BD0000FB
:10E29000EC26002070B5044600791C21074D484348
:10E2A0004019807E002808D1204600F007FB207925
:10E2B0001C22012150434019817670BDEC260020BC
:10E2C000F8B5044600791C21484326494518A87E24
:10E2D000184302D1204600F0F1FA6868002808D0FF
:10E2E00081210322206889001202801841600020E9
:10E2F000F8BDFF204530216800220A50FF2125315A
:10E30000206800F060F90646FF210931206800F01E
:10E310005AF90090FF214531206800F054F9074672
:10E32000009838433043E9D03046384307D1294676
:10E33000206800F057FAE87D697E8842DED8002028
:10E34000E875002E01D00320F8BD002F01D00F206A
:10E35000F8BDA97E01200029216801D00860C6E728
:10E360004860C4E7EC26002070B505460C460079ED
:10E370001C21484308494318284600F055F8002856
:10E3800001D0112070BD9A7500209C6098822846AB
:10E3900000F004F870BD0000EC260020F8B504463B
:10E3A00000791C2148431F4900264518FF27206893
:10E3B0001D37C6512068012181602946206800F080
:10E3C000C3FE6968002913D027E0FF270137FF212A
:10E3D0001D31206800F0F7F8002802D1A88AB84261
:10E3E000F5D1A88AB84203D02946206800F0ACFED7
:10E3F000A88AA97D8842E8D3A98AC81FF9380ED017
:10E40000FF271D373946206800F0DDF80028F9D0D5
:10E4100020680121C1600020A8753046F8BD0F2694
:10E42000F9E70000EC26002000791C21484303494D
:10E430004018807D002800D001207047EC26002085
:10E4400070B552000A439900049D0A432902059EB3
:10E450000A43310405240A432407800007210019D8
:10E4600009024018026070BD70B552000A4399005D
:10E47000049D0A432902059E0A43310405240A43E8
:10E48000240780000721001909024018026070BDAE
:10E4900070B552000A439900049D0A432902059E63
:10E4A0000A43310405240A43240780000721001988
:10E4B00009024018026070BD1CB500220B46009294
:10E4C00011460192FFF7E4FF1CBD052212078000F0
:10E4D00080180722032112028018016070471CB5C2
:10E4E000002100910B46012201911146FFF7D0FF58
:10E4F0001CBD052212078000821807200002101898
:10E50000026803231B049A430260026809040A4359
:10E51000026070470522120780008218072000025F
:10E520001018026803231B049A430260026809045E
:10E530000A43026070470000012181400148C16028
:10E5400070470000000500500121814001488160B2
:10E550007047000000050050012282400348002956
:10E5600001D082607047C260704700000005005013
:10E5700038B5084B05241B68009324026B464118EC
:10E5800005E085005D592D192D69401C20C281428E
:10E59000F7D838BD54F60100024940180021016047
:10E5A00070470000006000400349401800680128DF
:10E5B00000D0002070470000006000404058002854
:10E5C00000D0012070474058002800D0012070473B
:10E5D0000322120280184068084000D001207047D2
:10E5E00070B516460D46002405E0285DFDF77EFE59
:10E5F0000028FAD1641CB442F7D30D20FDF776FE53
:10E600000028FAD10A20FDF771FE0028FAD170BD6A
:10E6100010B5002809D0032806D10220FEF77AFBA6
:10E62000002801D0FDF70EFD10BD00F035FA10BD39
:10E6300070B50446314D00886E8888B03A2838D0CD
:10E640000DDC022839D0102813D011281AD0132835
:10E6500022D100231A46852130467FDF26E051284B
:10E660002FD052281DD0552816D1A088132176DF2F
:10E670001CE00720FEF74EFB002801D0FDF7E2FC6E
:10E68000A08808E00020FEF745FB002801D0FDF738
:10E69000D9FC0020C043688008B070BDFDF7D2FCF3
:10E6A000FAE700231A4619463046A9DF0028F5D1BB
:10E6B000F2E7A088132176DFF8E7A088002167DF62
:10E6C000F4E71022A11D04A8FCF74AFD6846017C6E
:10E6D0000029E1D0007E042803D0062801D00528B7
:10E6E000DAD1022908D0012069460870FF20833062
:10E6F0008880A088A8DFD9E70220F5E7E81F00207E
:10E7000010B50078002807D104483B21408876DF07
:10E71000002801D0FDF796FC10BD0000E81F002086
:10E720000449081820214156042901DB01207047C3
:10E7300000207047A42600200449081820214156D3
:10E74000042901D20120704700207047A426002030
:10E75000124810B50246416D936DD26D00290DDC53
:10E76000002B03DA002A01D100240466002905D118
:10E77000032B03D1002A01DC012404660C461C4350
:10E7800003D1022A01DB02240466C91C05D1002B37
:10E7900003D1002A01DC0321016610BDE81F00201F
:10E7A00070B501240B49600408600B494010886073
:10E7B000094940398860094D6C602F20FFF704FB40
:10E7C000AC60074D00242F20AC60FFF7FDFAAC7061
:10E7D00070BD000080E100E04013014000100140E6
:10E7E000C420002030B5FF220523CD7D002409324E
:10E7F0001B02C318002D8450986905D04B7ECA684F
:10E80000D054487E401C487630BD70B50024054683
:10E81000601C90B00007000F08A910300894087021
:10E82000601C0007000F103048708878F9263040CF
:10E83000801C88701C2101A8FCF7ABFC6946087994
:10E840001021084369460871029408A804940594AD
:10E8500007940690287808A988710320694688845F
:10E8600011200094087048708878F7213040801C8F
:10E870000840EF2108400126304369468870142182
:10E880000AA8FCF786FC09A80A9068460B9069461E
:10E890000E8614204C8688862B4668880C330AAA7C
:10E8A00001A9A2DF10B070BD1FB501246B461C701A
:10E8B0001972019206C8684690471FBDFF23253391
:10E8C00002680021D150FF2302680933D15000684B
:10E8D000012101607047000010B50446FDF744F8BF
:10E8E00000280CD0A007C00E002C0ADA2107090F5F
:10E8F00008398908144A89008918C96906E013484B
:10E9000010BDA108124A890089180968C14008068B
:10E91000800F042811D200280FD002280DD00D49F5
:10E920004B68E206D20E01209040002B08D062090D
:10E9300092008B5803438B5004E00448401C10BDE8
:10E9400005490860002010BD00ED00E00120000036
:10E9500000E400E0F820002000E100E0FFB50746F9
:10E96000806A81B0144600283DD00025384620300A
:10E97000009033E00C20B96A68430E18B088801C00
:10E98000FE2802D90C2005B0F0BD22880299401C57
:10E99000885420881622401C80B2208002990A5494
:10E9A0002088401C80B2208002994118308800F0F5
:10E9B0003FFD2188401880B22080B288002A0AD00A
:10E9C000B16800290FD0029BC018FCF7C9FB208852
:10E9D000B188401820806D1C0098EDB2007BA842E1
:10E9E000C8D80020CFE70720CDE7000070B5044667
:10E9F0001248134D018A2182818A618200780028A1
:10EA000018D06879002815D100F0D0FD002811D069
:10EA100028462030E060022008492072042020317E
:10EA2000C870064800212030FDF7F6FC002804D10C
:10EA3000052000E00320A870002070BDA82400205D
:10EA40006C20002070B5044611480426018B2182F9
:10EA5000818B618200780F4D002816D068790028DC
:10EA600013D100F0A3FD00280FD028462030E0602D
:10EA700002202072064800212030C670FDF7CCFC31
:10EA8000002804D10620A87000E0AE70002070BD00
:10EA9000A82400206C20002010B50020FEF73AF9D1
:10EAA000002801D0FDF7CEFAFEF78EF8002801D03D
:10EAB000FDF7C8FA3CDF002801D0FDF7C3FA10BD0E
:10EAC000002803D00249C860002070470E2070471C
:10EAD000042100201CB5034901910091694660DFC3
:10EAE0001CBD0000E81F002070B50E460546144608
:10EAF00014211046FCF74DFB0120002120802161EC
:10EB0000217326726572002D00D0A072002070BDA6
:10EB100010B5FDF789FA10BDF8B5002903D08C07B0
:10EB20000025002C01D00720F8BD0E4E0E4FB1601D
:10EB30007280736039680124214003D00A49254658
:10EB400080310C60094910DF002803D0002DEBD084
:10EB50003C60F8BD3470FFF773F91620FFF7BCFE78
:10EB6000F8BD00000421002000E100E011EB0100ED
:10EB700001480078704700000421002010B50D48BE
:10EB8000002141600C4B0122DA600924046181609C
:10EB90000848403001600949416081604900C16016
:10EBA0000F200749000448600815064908601A60EC
:10EBB00010BD000000A5004000A00040127A000037
:10EBC00000A3004000E100E0FEB51F4C0025A7684F
:10EBD000606802906846FEF7D3FB0190FEF73CFDAB
:10EBE00006460198002822D000230098616817E0AB
:10EBF0000E680A46864202D9301A086012E0801B6D
:10EC0000F31800261660D668D169B446002E07D0E6
:10EC1000FE183602360A566066469660D56115467D
:10EC20000029E5D128466160FEF76CFD06E0284624
:10EC3000FEF768FD002801D1002E02D00298FEF7F1
:10EC40009FFA0020E070FEBDC42000200120024990
:10EC5000000508607047000000E200E010B50E4BB0
:10EC60005968002906D002680C68A24204D8A21A8A
:10EC70000A60C161586010BD0B4604E00B46C969CB
:10EC8000121B002904D00C689442F7D3A41A0C601C
:10EC90000260C161D86110BDC42000207CB50D4662
:10ECA0000646002469460C706846FDF73FFB01A844
:10ECB00000F0F6FB00280DD0057046606846084954
:10ECC0000079487068460078FDF74EFBFFF7BEFFFD
:10ECD00020467CBD684604240078FDF745FBF7E735
:10ECE000D4200020F8B51D4D6C68002C34D01C4891
:10ECF00000274068A968401A0602360A2068B04218
:10ED000018D8361AC7192246107CE46900280FD09B
:10ED100000201074EB68002B07D091695069984768
:10ED2000002805D0FDF78EF902E051699069884707
:10ED3000002CE3D129786878814206D1401CC0B20A
:10ED40006870022801D10020687004490006800D17
:10ED500018310F50FFF77AFFF8BD0000C4200020E3
:10ED60000015014070B504462168214D89001F48F7
:10ED70004919086061688900491908602068FFF72F
:10ED8000E3FB6068FFF7E0FB18482168401C89003E
:10ED90004919086061688900491908600420FEF774
:10EDA000FBFF144E002521793069C840C007C00F11
:10EDB00002D0002D18D00EE02068FFF7BDFB042024
:10EDC000FEF7EAFF2068FFF7BFFB0420FEF7E4FF31
:10EDD0006D1C092DE7DB6068FFF7AEFB0420FEF732
:10EDE000DBFF6068FFF7B0FB70BD00000C060000A1
:10EDF00000070050000500501FB50A4B6C460FCBB2
:10EE00000FC4084800231A4669463438FFF758F9FA
:10EE1000002801D0FDF716F902483438FFF740F911
:10EE20001FBD0000FCF5010001460320CA0701D008
:10EE3000412040028A0700D50248490701D5014810
:10EE4000401C704701820000FFB50C4685B00021D0
:10EE50000491FF21053100261F466650FF21253110
:10EE60006650FF211D316650FF210931665005466D
:10EE70002035E11DFF31AE71FA31EE70012F0FD058
:10EE800001220A600121216221600168002909D064
:10EE900014498160806803210902611848601DE0FF
:10EEA0000222EEE7014626312330039102900097BB
:10EEB00001962046079B039A029900F02CF800283F
:10EEC000F5D1E878002809D00920C0012118486C44
:10EED0004864002802D0FFF7A7FF0490049809B007
:10EEE000F0BD00008602000030B51C78039D9442FE
:10EEF00008D205221202095D8018C1611878401CF1
:10EF0000187006E00121002D02D0C161002030BD43
:10EF10004161012030BDFFB50F46097883B004463A
:10EF2000002904D1059802780C98824201D1012071
:10EF300000E000200190FF2025300025002907D0A7
:10EF40002550FF201D302550FF200930255055E069
:10EF5000FF2125312046FFF731FB012600282CD167
:10EF6000FF211D312046FFF729FB002814D0FF2088
:10EF70001D302550FF2125312046FFF71FFB0028BB
:10EF80001BD10D9800902046059B0C9A0699FFF71F
:10EF9000ABFF00283FD031E0FF2109312046FFF7C9
:10EFA0000DFB00282AD0FF2009302550FF212531F4
:10EFB0002046FFF703FB002805D0FF202530255011
:10EFC00066613E701AE005990C980F78069ABC4667
:10EFD000874213D205231B02E3189B696746D3556A
:10EFE0000A78521CD2B20A70411E8A4203D1022012
:10EFF0000102085101E0824200D0266201980028F7
:10F000000BD0FF26053631462046FFF7D7FA0028F9
:10F0100003D0A551002007B0F0BD0120FBE70000A0
:10F02000FFB5054687B00C460020FF21109F053133
:10F0300005906050FF2125316050FF211D31605047
:10F04000FF2109316050012149022E460851203626
:10F05000B071F07001202062A060B31D0097029390
:10F0600020460A9A0999FFF73FFF2868002807D031
:10F070001148A860A868032109026118486018E0D7
:10F0800023350A980090019729462046099B029A49
:10F09000FFF741FF0028F4D1F078002809D00920BB
:10F0A000C0012118486C4864002802D0FFF7BCFE5C
:10F0B000059005980BB0F0BD86020000F8B5044637
:10F0C00000250320ED430002081885602546203501
:10F0D0002E79002E03D0A16841601120F8BD580799
:10F0E000C017401C2871180701D50620F8BDA36180
:10F0F000C1CA0C34C1C40C3A9078287050680B26F1
:10F100006060F60150788E19B06010780026183CC7
:10F1100001280ED0002801D1980601D5012000E079
:10F12000002068700090937852682046FFF778FFBF
:10F1300005E06E70937852682046FFF785FE2168DF
:10F140000029D3D12E71F8BDFF221D320023835038
:10F150008B8A8A68D25C8B8A5B1C8B8205210902B0
:10F160004018C261704770B58EB005461C216846D4
:10F17000FCF70FF8694608780C21084369460870C7
:10F18000002401940394049405940694287808A913
:10F190008870022069460884601C0007000F103048
:10F1A0000794087711204877887FF9210840F721D4
:10F1B000801C0840EF2108400126304369468877CB
:10F1C000142109A8FBF7E5FF08A8099007A80A90F1
:10F1D00069468E851420CC85088668882B1D09AA6F
:10F1E000A2DF0EB070BD1FB500226B461A701972F7
:10F1F00081680191827506C8684690471FBD00006E
:10F2000070B50178002907D0012901D0022902D167
:10F210004068FCF717FF70BD0F4C0E4D2078281882
:10F22000FCF7F0FF2078401CC2B2A81822702038EA
:10F23000C07F0A2801D0142AEDD306490748FDF7FC
:10F24000B3FB082803D0002801D0FCF7FBFE002008
:10F25000207070BD6C210020E81F002020240020B9
:10F260007CB50178264D002934D001290CD0022923
:10F270002DD16A461170C068691C01900122C81D19
:10F28000FEF7DAFF684630E0406801781D48FCF779
:10F2900002FF01261B4C002803D069460E70019026
:10F2A00006E0A068E168814205D000206946087048
:10F2B000084669688847A068E168081AA1888842FA
:10F2C00006D80F490122491CC81DFEF7B5FF7CBDB9
:10F2D000AE707CBD0B480A491030FCF7BFFE002819
:10F2E00006D00320694608706846696888477CBD77
:10F2F0000349012208460830FFF736F87CBD0000BC
:10F30000E420002028270020F0B50C46012185B01C
:10F3100005464902FFF75CF9032109026F18002630
:10F32000002826D0FF2125312846FFF74CF9002878
:10F330001FD0FF2025302E5081208000B860A07E95
:10F34000002801D10120686002216846017009206F
:10F35000C0012918086808600390E17D68460172C1
:10F36000E0680190E675267606CC6846083C904732
:10F370002DE004212846FFF72BF9002827D0FF2194
:10F3800009312846FFF71FF9002820D021462846DA
:10F39000FFF728FAE07D617E884218D1207E0028A0
:10F3A00007D0617EE268E0752069E06026766676C7
:10F3B0000AE0A07E002801D1012068608120800041
:10F3C000B860E675617EE2682046FFF76DFAFF27B8
:10F3D0001D3739462846FFF7F6F800280FD0A08AD7
:10F3E000A17D884204D221462846FFF7ADFE06E003
:10F3F000EE51A17D002902D02046FFF7F4FEFF2741
:10F40000453739462846FFF7DEF800280ED0EE5182
:10F41000A07E002801D001202860E07D002805D0D2
:10F42000E675617EE2682046FFF73EFA05B0F0BD62
:10F430000870000A487002207047000038B515496E
:10F44000154A488890420FD04A78144C521CD2B2C8
:10F450004A70237B934208D3091D75DF002803D02F
:10F46000A169002900D0884738BD00254D70217C56
:10F47000002907D03B2176DF002803D0A1690029AD
:10F4800000D0884761690029EED06846057088473A
:10F4900038BD00009C200020FFFF000074260020E3
:10F4A00010B509494B788C785A1CD2B2944200D1DD
:10F4B00000220C78944201D1002010BD02704868EF
:10F4C00018214B43C01810BDD4200020FFB583B0D5
:10F4D00016460C9D0D9C1F46022200950194039830
:10F4E00000F00CF8002807D13B4610223146009569
:10F4F0000194039800F002F807B0F0BDFFB583B0A7
:10F50000074600200C9C8646268805463AE0786827
:10F51000A90042181188684681805188C180002264
:10F52000694601A865DF002839D168460178059849
:10F53000814226D17046002801D0002200E002223C
:10F540002088891842180D998A4227D871460029C7
:10F550000AD1401C80B22080069A04991154208858
:10F56000401C208001208646218806980A1869469A
:10F5700001A865DF002812D1694620880978401863
:10F5800020806D1C3888A842C1DC704600280AD053
:10F590002088801B401E80B2FF2802D90C2007B0B3
:10F5A000F0BD069988550020F9E70000044801796C
:10F5B000002902D1007B002800D001207047000004
:10F5C0008C200020010000070030004000000000F7
:10F5D0000202000000000000010000000000000026
:10F5E000000000000B0000000900000008000000FF
:10F5F0000A0000000000000000E0D7010700000042
:10F600001E00000000006806010000001516171813
:10F61000111213143C2400205C24002088240020B4
:10F6200011000300EDCB010012000300EDCB01003F
:10F6300013000300EDCB010014000300EDCB01002B
:10F64000542600209ECADC240EE5A9E093F3A3B55E
:10F650000000406E0000005008270020030000005A
:10F66000FFFFFFFFFFFFFFFFFFFFFFFFFFFFFFFFAA
:10F67000000000000000000000E0D70103000000CF
:10F68000A0F60100E81F00203C0100007CB401004E
:10F69000C4F60100242100208C16000058B9010096
:10F6A00031D3FFFF3701000200E80342080288015E
:10F6B0005514260020055634260020042A20004038
:04F6C000A324F4008B
:040000050001B0C185
:00000001FF
